{
  "contractName": "MarketPlace",
  "abi": [
    {
      "inputs": [],
      "stateMutability": "nonpayable",
      "type": "constructor"
    },
    {
      "anonymous": false,
      "inputs": [
        {
          "indexed": true,
          "internalType": "address",
          "name": "previousOwner",
          "type": "address"
        },
        {
          "indexed": true,
          "internalType": "address",
          "name": "newOwner",
          "type": "address"
        }
      ],
      "name": "OwnershipTransferred",
      "type": "event"
    },
    {
      "anonymous": false,
      "inputs": [
        {
          "indexed": false,
          "internalType": "bool",
          "name": "state",
          "type": "bool"
        }
      ],
      "name": "marketStateChanged",
      "type": "event"
    },
    {
      "anonymous": false,
      "inputs": [
        {
          "indexed": false,
          "internalType": "uint256",
          "name": "storeNum",
          "type": "uint256"
        },
        {
          "indexed": false,
          "internalType": "string",
          "name": "productName",
          "type": "string"
        },
        {
          "indexed": false,
          "internalType": "uint256",
          "name": "productNum",
          "type": "uint256"
        }
      ],
      "name": "productAdded",
      "type": "event"
    },
    {
      "anonymous": false,
      "inputs": [
        {
          "indexed": false,
          "internalType": "uint256",
          "name": "storeNum",
          "type": "uint256"
        },
        {
          "indexed": false,
          "internalType": "uint256",
          "name": "productNum",
          "type": "uint256"
        }
      ],
      "name": "productPriceUpdated",
      "type": "event"
    },
    {
      "anonymous": false,
      "inputs": [
        {
          "indexed": false,
          "internalType": "uint256",
          "name": "storeNum",
          "type": "uint256"
        },
        {
          "indexed": false,
          "internalType": "uint256",
          "name": "productNum",
          "type": "uint256"
        },
        {
          "indexed": false,
          "internalType": "uint256",
          "name": "quantity",
          "type": "uint256"
        },
        {
          "indexed": false,
          "internalType": "address",
          "name": "shopper",
          "type": "address"
        }
      ],
      "name": "productPurchased",
      "type": "event"
    },
    {
      "anonymous": false,
      "inputs": [
        {
          "indexed": false,
          "internalType": "uint256",
          "name": "storeNum",
          "type": "uint256"
        },
        {
          "indexed": false,
          "internalType": "uint256",
          "name": "productNum",
          "type": "uint256"
        }
      ],
      "name": "productRemoved",
      "type": "event"
    },
    {
      "anonymous": false,
      "inputs": [
        {
          "indexed": false,
          "internalType": "uint256",
          "name": "storeNum",
          "type": "uint256"
        },
        {
          "indexed": false,
          "internalType": "string",
          "name": "storeName",
          "type": "string"
        },
        {
          "indexed": false,
          "internalType": "address",
          "name": "storeOwner",
          "type": "address"
        }
      ],
      "name": "storeFrontCreated",
      "type": "event"
    },
    {
      "anonymous": false,
      "inputs": [
        {
          "indexed": false,
          "internalType": "address",
          "name": "newStoreOwner",
          "type": "address"
        }
      ],
      "name": "storeOwnerAdded",
      "type": "event"
    },
    {
      "anonymous": false,
      "inputs": [
        {
          "indexed": false,
          "internalType": "uint256",
          "name": "amount",
          "type": "uint256"
        },
        {
          "indexed": false,
          "internalType": "uint256",
          "name": "storeNum",
          "type": "uint256"
        },
        {
          "indexed": false,
          "internalType": "address",
          "name": "storeOwner",
          "type": "address"
        }
      ],
      "name": "storeWithdrawn",
      "type": "event"
    },
    {
      "inputs": [
        {
          "internalType": "uint256",
          "name": "",
          "type": "uint256"
        }
      ],
      "name": "StoreProducts",
      "outputs": [
        {
          "internalType": "string",
          "name": "name",
          "type": "string"
        },
        {
          "internalType": "uint256",
          "name": "storeNum",
          "type": "uint256"
        },
        {
          "internalType": "uint256",
          "name": "productNum",
          "type": "uint256"
        },
        {
          "internalType": "uint256",
          "name": "price",
          "type": "uint256"
        },
        {
          "internalType": "uint256",
          "name": "quantity",
          "type": "uint256"
        },
        {
          "internalType": "bool",
          "name": "isAvailable",
          "type": "bool"
        }
      ],
      "stateMutability": "view",
      "type": "function",
      "constant": true
    },
    {
      "inputs": [],
      "name": "adminCount",
      "outputs": [
        {
          "internalType": "uint256",
          "name": "",
          "type": "uint256"
        }
      ],
      "stateMutability": "view",
      "type": "function",
      "constant": true
    },
    {
      "inputs": [
        {
          "internalType": "address",
          "name": "",
          "type": "address"
        }
      ],
      "name": "admins",
      "outputs": [
        {
          "internalType": "bool",
          "name": "",
          "type": "bool"
        }
      ],
      "stateMutability": "view",
      "type": "function",
      "constant": true
    },
    {
      "inputs": [],
      "name": "marktState",
      "outputs": [
        {
          "internalType": "bool",
          "name": "",
          "type": "bool"
        }
      ],
      "stateMutability": "view",
      "type": "function",
      "constant": true
    },
    {
      "inputs": [],
      "name": "owner",
      "outputs": [
        {
          "internalType": "address",
          "name": "",
          "type": "address"
        }
      ],
      "stateMutability": "view",
      "type": "function",
      "constant": true
    },
    {
      "inputs": [],
      "name": "productCount",
      "outputs": [
        {
          "internalType": "uint256",
          "name": "",
          "type": "uint256"
        }
      ],
      "stateMutability": "view",
      "type": "function",
      "constant": true
    },
    {
      "inputs": [],
      "name": "renounceOwnership",
      "outputs": [],
      "stateMutability": "nonpayable",
      "type": "function"
    },
    {
      "inputs": [],
      "name": "storeCount",
      "outputs": [
        {
          "internalType": "uint256",
          "name": "",
          "type": "uint256"
        }
      ],
      "stateMutability": "view",
      "type": "function",
      "constant": true
    },
    {
      "inputs": [
        {
          "internalType": "uint256",
          "name": "",
          "type": "uint256"
        }
      ],
      "name": "storeFronts",
      "outputs": [
        {
          "internalType": "string",
          "name": "storeName",
          "type": "string"
        },
        {
          "internalType": "address",
          "name": "storeOwner",
          "type": "address"
        },
        {
          "internalType": "address",
          "name": "approverAdmin",
          "type": "address"
        },
        {
          "internalType": "uint256",
          "name": "skuCount",
          "type": "uint256"
        },
        {
          "internalType": "uint256",
          "name": "balance",
          "type": "uint256"
        }
      ],
      "stateMutability": "view",
      "type": "function",
      "constant": true
    },
    {
      "inputs": [
        {
          "internalType": "uint256",
          "name": "",
          "type": "uint256"
        }
      ],
      "name": "storeFronttoStoreOwner",
      "outputs": [
        {
          "internalType": "address",
          "name": "",
          "type": "address"
        }
      ],
      "stateMutability": "view",
      "type": "function",
      "constant": true
    },
    {
      "inputs": [
        {
          "internalType": "address",
          "name": "",
          "type": "address"
        }
      ],
      "name": "storeOwners",
      "outputs": [
        {
          "internalType": "bool",
          "name": "",
          "type": "bool"
        }
      ],
      "stateMutability": "view",
      "type": "function",
      "constant": true
    },
    {
      "inputs": [],
      "name": "storeOwnersCount",
      "outputs": [
        {
          "internalType": "uint256",
          "name": "",
          "type": "uint256"
        }
      ],
      "stateMutability": "view",
      "type": "function",
      "constant": true
    },
    {
      "inputs": [
        {
          "internalType": "address",
          "name": "",
          "type": "address"
        },
        {
          "internalType": "uint256",
          "name": "",
          "type": "uint256"
        }
      ],
      "name": "storeOwnertoStoreFront",
      "outputs": [
        {
          "internalType": "uint256",
          "name": "",
          "type": "uint256"
        }
      ],
      "stateMutability": "view",
      "type": "function",
      "constant": true
    },
    {
      "inputs": [
        {
          "internalType": "uint256",
          "name": "",
          "type": "uint256"
        },
        {
          "internalType": "uint256",
          "name": "",
          "type": "uint256"
        }
      ],
      "name": "stotrFronttoProducts",
      "outputs": [
        {
          "internalType": "uint256",
          "name": "",
          "type": "uint256"
        }
      ],
      "stateMutability": "view",
      "type": "function",
      "constant": true
    },
    {
      "inputs": [
        {
          "internalType": "address",
          "name": "newOwner",
          "type": "address"
        }
      ],
      "name": "transferOwnership",
      "outputs": [],
      "stateMutability": "nonpayable",
      "type": "function"
    },
    {
      "stateMutability": "payable",
      "type": "receive",
      "payable": true
    },
    {
      "inputs": [
        {
          "internalType": "address",
          "name": "_newStoreOwner",
          "type": "address"
        }
      ],
      "name": "addStoreOwner",
      "outputs": [],
      "stateMutability": "nonpayable",
      "type": "function"
    },
    {
      "inputs": [
        {
          "internalType": "bool",
          "name": "_state",
          "type": "bool"
        }
      ],
      "name": "changeMarketState",
      "outputs": [],
      "stateMutability": "nonpayable",
      "type": "function"
    },
    {
      "inputs": [],
      "name": "getMarketState",
      "outputs": [
        {
          "internalType": "bool",
          "name": "",
          "type": "bool"
        }
      ],
      "stateMutability": "view",
      "type": "function",
      "constant": true
    },
    {
      "inputs": [
        {
          "internalType": "address",
          "name": "_address",
          "type": "address"
        }
      ],
      "name": "isAdmin",
      "outputs": [
        {
          "internalType": "bool",
          "name": "",
          "type": "bool"
        }
      ],
      "stateMutability": "view",
      "type": "function",
      "constant": true
    },
    {
      "inputs": [
        {
          "internalType": "address",
          "name": "_address",
          "type": "address"
        }
      ],
      "name": "isStoreOwner",
      "outputs": [
        {
          "internalType": "bool",
          "name": "",
          "type": "bool"
        }
      ],
      "stateMutability": "view",
      "type": "function",
      "constant": true
    },
    {
      "inputs": [],
      "name": "getNumberOfStoreOwners",
      "outputs": [
        {
          "internalType": "uint256",
          "name": "",
          "type": "uint256"
        }
      ],
      "stateMutability": "view",
      "type": "function",
      "constant": true
    },
    {
      "inputs": [],
      "name": "addressType",
      "outputs": [
        {
          "internalType": "enum MarketPlace.addressTypes",
          "name": "",
          "type": "uint8"
        }
      ],
      "stateMutability": "view",
      "type": "function",
      "constant": true
    },
    {
      "inputs": [],
      "name": "getContractBalance",
      "outputs": [
        {
          "internalType": "uint256",
          "name": "",
          "type": "uint256"
        }
      ],
      "stateMutability": "view",
      "type": "function",
      "constant": true
    },
    {
      "inputs": [],
      "name": "destroyContract",
      "outputs": [],
      "stateMutability": "nonpayable",
      "type": "function"
    },
    {
      "inputs": [
        {
          "internalType": "string",
          "name": "_storeName",
          "type": "string"
        }
      ],
      "name": "createStoreFront",
      "outputs": [
        {
          "internalType": "bool",
          "name": "",
          "type": "bool"
        }
      ],
      "stateMutability": "nonpayable",
      "type": "function"
    },
    {
      "inputs": [
        {
          "internalType": "uint256",
          "name": "_storeNum",
          "type": "uint256"
        },
        {
          "internalType": "string",
          "name": "_productName",
          "type": "string"
        },
        {
          "internalType": "uint256",
          "name": "_productPrice",
          "type": "uint256"
        },
        {
          "internalType": "uint256",
          "name": "_productQuantity",
          "type": "uint256"
        }
      ],
      "name": "addProduct",
      "outputs": [
        {
          "internalType": "uint256",
          "name": "",
          "type": "uint256"
        }
      ],
      "stateMutability": "nonpayable",
      "type": "function"
    },
    {
      "inputs": [
        {
          "internalType": "uint256",
          "name": "_storeNum",
          "type": "uint256"
        },
        {
          "internalType": "uint256",
          "name": "_productNum",
          "type": "uint256"
        },
        {
          "internalType": "uint256",
          "name": "_newProductPrice",
          "type": "uint256"
        }
      ],
      "name": "updateProductPrice",
      "outputs": [
        {
          "internalType": "bool",
          "name": "",
          "type": "bool"
        }
      ],
      "stateMutability": "nonpayable",
      "type": "function"
    },
    {
      "inputs": [
        {
          "internalType": "uint256",
          "name": "_storeNum",
          "type": "uint256"
        },
        {
          "internalType": "uint256",
          "name": "_productNum",
          "type": "uint256"
        }
      ],
      "name": "removeProduct",
      "outputs": [
        {
          "internalType": "bool",
          "name": "",
          "type": "bool"
        }
      ],
      "stateMutability": "nonpayable",
      "type": "function"
    },
    {
      "inputs": [],
      "name": "getStoreFrontCount",
      "outputs": [
        {
          "internalType": "uint256",
          "name": "",
          "type": "uint256"
        }
      ],
      "stateMutability": "view",
      "type": "function",
      "constant": true
    },
    {
      "inputs": [
        {
          "internalType": "uint256",
          "name": "_storeNum",
          "type": "uint256"
        }
      ],
      "name": "withdraw",
      "outputs": [],
      "stateMutability": "payable",
      "type": "function",
      "payable": true
    },
    {
      "inputs": [
        {
          "internalType": "uint256",
          "name": "_storeNum",
          "type": "uint256"
        }
      ],
      "name": "getStoreFrontInfo",
      "outputs": [
        {
          "internalType": "string",
          "name": "",
          "type": "string"
        },
        {
          "internalType": "address",
          "name": "",
          "type": "address"
        },
        {
          "internalType": "address",
          "name": "",
          "type": "address"
        },
        {
          "internalType": "uint256",
          "name": "",
          "type": "uint256"
        },
        {
          "internalType": "uint256",
          "name": "",
          "type": "uint256"
        }
      ],
      "stateMutability": "view",
      "type": "function",
      "constant": true
    },
    {
      "inputs": [],
      "name": "getStoreFrontByStoreOwner",
      "outputs": [
        {
          "internalType": "uint256[]",
          "name": "",
          "type": "uint256[]"
        }
      ],
      "stateMutability": "view",
      "type": "function",
      "constant": true
    },
    {
      "inputs": [
        {
          "internalType": "uint256",
          "name": "_productNum",
          "type": "uint256"
        }
      ],
      "name": "getProductInfo",
      "outputs": [
        {
          "internalType": "string",
          "name": "",
          "type": "string"
        },
        {
          "internalType": "uint256",
          "name": "",
          "type": "uint256"
        },
        {
          "internalType": "uint256",
          "name": "",
          "type": "uint256"
        },
        {
          "internalType": "uint256",
          "name": "",
          "type": "uint256"
        },
        {
          "internalType": "uint256",
          "name": "",
          "type": "uint256"
        },
        {
          "internalType": "bool",
          "name": "",
          "type": "bool"
        }
      ],
      "stateMutability": "view",
      "type": "function",
      "constant": true
    },
    {
      "inputs": [
        {
          "internalType": "uint256",
          "name": "_storeNum",
          "type": "uint256"
        }
      ],
      "name": "getProductsByStoreFront",
      "outputs": [
        {
          "internalType": "uint256[]",
          "name": "",
          "type": "uint256[]"
        }
      ],
      "stateMutability": "view",
      "type": "function",
      "constant": true
    },
    {
      "inputs": [
        {
          "internalType": "uint256",
          "name": "_storeNum",
          "type": "uint256"
        },
        {
          "internalType": "uint256",
          "name": "_productNum",
          "type": "uint256"
        }
      ],
      "name": "purchaseProduct",
      "outputs": [
        {
          "internalType": "bool",
          "name": "",
          "type": "bool"
        }
      ],
      "stateMutability": "payable",
      "type": "function",
      "payable": true
    }
  ],
  "bytecode": "0x60806040523480156200001157600080fd5b506000620000246200015b60201b60201c565b9050806000806101000a81548173ffffffffffffffffffffffffffffffffffffffff021916908373ffffffffffffffffffffffffffffffffffffffff1602179055508073ffffffffffffffffffffffffffffffffffffffff16600073ffffffffffffffffffffffffffffffffffffffff167f8be0079c531659141344cd1fd0a4f28419497f9722a3daafe3b4186f6b6457e060405160405180910390a3506001600660003373ffffffffffffffffffffffffffffffffffffffff1673ffffffffffffffffffffffffffffffffffffffff16815260200190815260200160002060006101000a81548160ff02191690831515021790555060006001819055506001600281905550600060038190555060006004819055506001600560006101000a81548160ff02191690831515021790555062000163565b600033905090565b613a7480620001736000396000f3fe6080604052600436106102085760003560e01c8063715018a611610118578063a1b141d4116100a0578063d202330f1161006f578063d202330f14610f03578063d816574314610f40578063e0f6ef8714610f6f578063f2fde38b14610f9a578063f452df3814610feb57610212565b8063a1b141d414610d84578063a954d1e414610daf578063b75fd88f14610dde578063c27ed2a214610e0957610212565b80638c70439a116100e75780638c70439a14610b455780638da5cb5b14610c2057806398ec32ce14610c775780639adeb5f114610ce3578063a044042614610d3457610212565b8063715018a6146108c457806378acd5c8146108db57806379a85e6c14610a03578063881a930b14610ade57610212565b80633191d4011161019b578063506cd1071161016a578063506cd1071461070a57806351f0c51a146107435780635287d535146107d35780635effd33c146108305780636f9fb98a1461089957610212565b80633191d401146104df578063348799de1461060757806342907cef14610632578063429b62e5146106a157610212565b806324d7806c116101d757806324d7806c1461033d5780632b7832b3146103a65780632e1a7d4d146103d15780632fc826bd146103ff57610212565b8063057cc2a114610217578063092a5cce1461028057806313db203e146102975780631e5be6df1461031257610212565b3661021257600080fd5b600080fd5b34801561022357600080fd5b506102666004803603602081101561023a57600080fd5b81019080803573ffffffffffffffffffffffffffffffffffffffff169060200190929190505050611044565b604051808215151515815260200191505060405180910390f35b34801561028c57600080fd5b50610295611064565b005b3480156102a357600080fd5b506102d0600480360360208110156102ba57600080fd5b8101908080359060200190929190505050611146565b604051808273ffffffffffffffffffffffffffffffffffffffff1673ffffffffffffffffffffffffffffffffffffffff16815260200191505060405180910390f35b34801561031e57600080fd5b50610327611179565b6040518082815260200191505060405180910390f35b34801561034957600080fd5b5061038c6004803603602081101561036057600080fd5b81019080803573ffffffffffffffffffffffffffffffffffffffff169060200190929190505050611183565b604051808215151515815260200191505060405180910390f35b3480156103b257600080fd5b506103bb6111d9565b6040518082815260200191505060405180910390f35b6103fd600480360360208110156103e757600080fd5b81019080803590602001909291905050506111df565b005b34801561040b57600080fd5b506104c56004803603602081101561042257600080fd5b810190808035906020019064010000000081111561043f57600080fd5b82018360208201111561045157600080fd5b8035906020019184600183028401116401000000008311171561047357600080fd5b91908080601f016020809104026020016040519081016040528093929190818152602001838380828437600081840152601f19601f82011690508083019250505050505050919291929050505061149b565b604051808215151515815260200191505060405180910390f35b3480156104eb57600080fd5b506105186004803603602081101561050257600080fd5b81019080803590602001909291905050506118a0565b60405180806020018673ffffffffffffffffffffffffffffffffffffffff1673ffffffffffffffffffffffffffffffffffffffff1681526020018573ffffffffffffffffffffffffffffffffffffffff1673ffffffffffffffffffffffffffffffffffffffff168152602001848152602001838152602001828103825287818151815260200191508051906020019080838360005b838110156105c85780820151818401526020810190506105ad565b50505050905090810190601f1680156105f55780820380516001836020036101000a031916815260200191505b50965050505050505060405180910390f35b34801561061357600080fd5b5061061c6119ae565b6040518082815260200191505060405180910390f35b34801561063e57600080fd5b5061068b6004803603604081101561065557600080fd5b81019080803573ffffffffffffffffffffffffffffffffffffffff16906020019092919080359060200190929190505050611a77565b6040518082815260200191505060405180910390f35b3480156106ad57600080fd5b506106f0600480360360208110156106c457600080fd5b81019080803573ffffffffffffffffffffffffffffffffffffffff169060200190929190505050611aa5565b604051808215151515815260200191505060405180910390f35b34801561071657600080fd5b5061071f611ac5565b6040518082600281111561072f57fe5b60ff16815260200191505060405180910390f35b34801561074f57600080fd5b5061077c6004803603602081101561076657600080fd5b8101908080359060200190929190505050611b6e565b6040518080602001828103825283818151815260200191508051906020019060200280838360005b838110156107bf5780820151818401526020810190506107a4565b505050509050019250505060405180910390f35b3480156107df57600080fd5b50610816600480360360408110156107f657600080fd5b810190808035906020019092919080359060200190929190505050611bd9565b604051808215151515815260200191505060405180910390f35b34801561083c57600080fd5b5061087f6004803603602081101561085357600080fd5b81019080803573ffffffffffffffffffffffffffffffffffffffff169060200190929190505050611daa565b604051808215151515815260200191505060405180910390f35b3480156108a557600080fd5b506108ae611e00565b6040518082815260200191505060405180910390f35b3480156108d057600080fd5b506108d9611ed1565b005b3480156108e757600080fd5b50610914600480360360208110156108fe57600080fd5b8101908080359060200190929190505050612059565b60405180806020018673ffffffffffffffffffffffffffffffffffffffff1673ffffffffffffffffffffffffffffffffffffffff1681526020018573ffffffffffffffffffffffffffffffffffffffff1673ffffffffffffffffffffffffffffffffffffffff168152602001848152602001838152602001828103825287818151815260200191508051906020019080838360005b838110156109c45780820151818401526020810190506109a9565b50505050905090810190601f1680156109f15780820380516001836020036101000a031916815260200191505b50965050505050505060405180910390f35b348015610a0f57600080fd5b50610a3c60048036036020811015610a2657600080fd5b81019080803590602001909291905050506121c2565b604051808060200187815260200186815260200185815260200184815260200183151515158152602001828103825288818151815260200191508051906020019080838360005b83811015610a9e578082015181840152602081019050610a83565b50505050905090810190601f168015610acb5780820380516001836020036101000a031916815260200191505b5097505050505050505060405180910390f35b348015610aea57600080fd5b50610b2b60048036036060811015610b0157600080fd5b81019080803590602001909291908035906020019092919080359060200190929190505050612313565b604051808215151515815260200191505060405180910390f35b348015610b5157600080fd5b50610b7e60048036036020811015610b6857600080fd5b810190808035906020019092919050505061252b565b604051808060200187815260200186815260200185815260200184815260200183151515158152602001828103825288818151815260200191508051906020019080838360005b83811015610be0578082015181840152602081019050610bc5565b50505050905090810190601f168015610c0d5780820380516001836020036101000a031916815260200191505b5097505050505050505060405180910390f35b348015610c2c57600080fd5b50610c3561260c565b604051808273ffffffffffffffffffffffffffffffffffffffff1673ffffffffffffffffffffffffffffffffffffffff16815260200191505060405180910390f35b348015610c8357600080fd5b50610c8c612635565b6040518080602001828103825283818151815260200191508051906020019060200280838360005b83811015610ccf578082015181840152602081019050610cb4565b505050509050019250505060405180910390f35b348015610cef57600080fd5b50610d3260048036036020811015610d0657600080fd5b81019080803573ffffffffffffffffffffffffffffffffffffffff1690602001909291905050506126ca565b005b610d6a60048036036040811015610d4a57600080fd5b810190808035906020019092919080359060200190929190505050612985565b604051808215151515815260200191505060405180910390f35b348015610d9057600080fd5b50610d99612db7565b6040518082815260200191505060405180910390f35b348015610dbb57600080fd5b50610dc4612dbd565b604051808215151515815260200191505060405180910390f35b348015610dea57600080fd5b50610df3612dd0565b6040518082815260200191505060405180910390f35b348015610e1557600080fd5b50610eed60048036036080811015610e2c57600080fd5b810190808035906020019092919080359060200190640100000000811115610e5357600080fd5b820183602082011115610e6557600080fd5b80359060200191846001830284011164010000000083111715610e8757600080fd5b91908080601f016020809104026020016040519081016040528093929190818152602001838380828437600081840152601f19601f8201169050808301925050505050505091929192908035906020019092919080359060200190929190505050612dd6565b6040518082815260200191505060405180910390f35b348015610f0f57600080fd5b50610f3e60048036036020811015610f2657600080fd5b810190808035151590602001909291905050506131f3565b005b348015610f4c57600080fd5b50610f55613376565b604051808215151515815260200191505060405180910390f35b348015610f7b57600080fd5b50610f8461338d565b6040518082815260200191505060405180910390f35b348015610fa657600080fd5b50610fe960048036036020811015610fbd57600080fd5b81019080803573ffffffffffffffffffffffffffffffffffffffff169060200190929190505050613393565b005b348015610ff757600080fd5b5061102e6004803603604081101561100e57600080fd5b8101908080359060200190929190803590602001909291905050506135a0565b6040518082815260200191505060405180910390f35b60076020528060005260406000206000915054906101000a900460ff1681565b61106c6135ce565b73ffffffffffffffffffffffffffffffffffffffff166000809054906101000a900473ffffffffffffffffffffffffffffffffffffffff1673ffffffffffffffffffffffffffffffffffffffff161461112d576040517f08c379a00000000000000000000000000000000000000000000000000000000081526004018080602001828103825260208152602001807f4f776e61626c653a2063616c6c6572206973206e6f7420746865206f776e657281525060200191505060405180910390fd5b3073ffffffffffffffffffffffffffffffffffffffff16ff5b600a6020528060005260406000206000915054906101000a900473ffffffffffffffffffffffffffffffffffffffff1681565b6000600354905090565b6000600660008373ffffffffffffffffffffffffffffffffffffffff1673ffffffffffffffffffffffffffffffffffffffff16815260200190815260200160002060009054906101000a900460ff169050919050565b60025481565b803373ffffffffffffffffffffffffffffffffffffffff16600a600083815260200190815260200160002060009054906101000a900473ffffffffffffffffffffffffffffffffffffffff1673ffffffffffffffffffffffffffffffffffffffff1614611297576040517f08c379a00000000000000000000000000000000000000000000000000000000081526004018080602001828103825260218152602001806139fc6021913960400191505060405180910390fd5b600560009054906101000a900460ff16611319576040517f08c379a00000000000000000000000000000000000000000000000000000000081526004018080602001828103825260208152602001807f536f7272792c204d61726b657420737461746520697320696e6163746976652181525060200191505060405180910390fd5b60006008600084815260200190815260200160002060040154116113a5576040517f08c379a000000000000000000000000000000000000000000000000000000000815260040180806020018281038252601a8152602001807f536f7272792c206e6f2066756e647320617661696c61626c652100000000000081525060200191505060405180910390fd5b600060086000848152602001908152602001600020600401549050600060086000858152602001908152602001600020600401819055503373ffffffffffffffffffffffffffffffffffffffff166108fc829081150290604051600060405180830381858888f19350505050158015611422573d6000803e3d6000fd5b507f101ec0c68f1fc97c09cf17d4a562d7d7d1c37f3b384207db8f5e14f221f356de818433604051808481526020018381526020018273ffffffffffffffffffffffffffffffffffffffff1673ffffffffffffffffffffffffffffffffffffffff168152602001935050505060405180910390a1505050565b6000600760003373ffffffffffffffffffffffffffffffffffffffff1673ffffffffffffffffffffffffffffffffffffffff16815260200190815260200160002060009054906101000a900460ff1661153f576040517f08c379a00000000000000000000000000000000000000000000000000000000081526004018080602001828103825260218152602001806139fc6021913960400191505060405180910390fd5b600560009054906101000a900460ff166115c1576040517f08c379a00000000000000000000000000000000000000000000000000000000081526004018080602001828103825260208152602001807f536f7272792c204d61726b657420737461746520697320696e6163746976652181525060200191505060405180910390fd5b6115ce60035460016135d6565b6003819055506040518060a001604052808381526020013373ffffffffffffffffffffffffffffffffffffffff168152602001600073ffffffffffffffffffffffffffffffffffffffff168152602001600081526020016000815250600860006003548152602001908152602001600020600082015181600001908051906020019061165b929190613878565b5060208201518160010160006101000a81548173ffffffffffffffffffffffffffffffffffffffff021916908373ffffffffffffffffffffffffffffffffffffffff16021790555060408201518160020160006101000a81548173ffffffffffffffffffffffffffffffffffffffff021916908373ffffffffffffffffffffffffffffffffffffffff1602179055506060820151816003015560808201518160040155905050600960003373ffffffffffffffffffffffffffffffffffffffff1673ffffffffffffffffffffffffffffffffffffffff168152602001908152602001600020600354908060018154018082558091505060019003906000526020600020016000909190919091505533600a6000600354815260200190815260200160002060006101000a81548173ffffffffffffffffffffffffffffffffffffffff021916908373ffffffffffffffffffffffffffffffffffffffff1602179055507f981bdf87b6a5937751ec714254f33c9280af322ed4c6744b1ba943aae982b606600354833360405180848152602001806020018373ffffffffffffffffffffffffffffffffffffffff1673ffffffffffffffffffffffffffffffffffffffff168152602001828103825284818151815260200191508051906020019080838360005b8381101561185b578082015181840152602081019050611840565b50505050905090810190601f1680156118885780820380516001836020036101000a031916815260200191505b5094505050505060405180910390a160019050919050565b6008602052806000526040600020600091509050806000018054600181600116156101000203166002900480601f01602080910402602001604051908101604052809291908181526020018280546001816001161561010002031660029004801561194c5780601f106119215761010080835404028352916020019161194c565b820191906000526020600020905b81548152906001019060200180831161192f57829003601f168201915b5050505050908060010160009054906101000a900473ffffffffffffffffffffffffffffffffffffffff16908060020160009054906101000a900473ffffffffffffffffffffffffffffffffffffffff16908060030154908060040154905085565b6000600660003373ffffffffffffffffffffffffffffffffffffffff1673ffffffffffffffffffffffffffffffffffffffff16815260200190815260200160002060009054906101000a900460ff16611a6f576040517f08c379a00000000000000000000000000000000000000000000000000000000081526004018080602001828103825260198152602001807f536f7272792c20796f7520617265206e6f742061646d696e210000000000000081525060200191505060405180910390fd5b600154905090565b60096020528160005260406000208181548110611a9057fe5b90600052602060002001600091509150505481565b60066020528060005260406000206000915054906101000a900460ff1681565b6000611acf61260c565b73ffffffffffffffffffffffffffffffffffffffff163373ffffffffffffffffffffffffffffffffffffffff161415611b0b5760009050611b6b565b600760003373ffffffffffffffffffffffffffffffffffffffff1673ffffffffffffffffffffffffffffffffffffffff16815260200190815260200160002060009054906101000a900460ff1615611b665760019050611b6b565b600290505b90565b6060600c6000838152602001908152602001600020805480602002602001604051908101604052809291908181526020018280548015611bcd57602002820191906000526020600020905b815481526020019060010190808311611bb9575b50505050509050919050565b6000823373ffffffffffffffffffffffffffffffffffffffff16600a600083815260200190815260200160002060009054906101000a900473ffffffffffffffffffffffffffffffffffffffff1673ffffffffffffffffffffffffffffffffffffffff1614611c93576040517f08c379a00000000000000000000000000000000000000000000000000000000081526004018080602001828103825260218152602001806139fc6021913960400191505060405180910390fd5b600560009054906101000a900460ff16611d15576040517f08c379a00000000000000000000000000000000000000000000000000000000081526004018080602001828103825260208152602001807f536f7272792c204d61726b657420737461746520697320696e6163746976652181525060200191505060405180910390fd5b6000600b600085815260200190815260200160002060050160006101000a81548160ff0219169083151502179055506000600b6000858152602001908152602001600020600401819055507fee5c25bc05965731664c56badbcca59a6253500c527c65804cd0767ae581b92b8484604051808381526020018281526020019250505060405180910390a1600191505092915050565b6000600760008373ffffffffffffffffffffffffffffffffffffffff1673ffffffffffffffffffffffffffffffffffffffff16815260200190815260200160002060009054906101000a900460ff169050919050565b6000611e0a6135ce565b73ffffffffffffffffffffffffffffffffffffffff166000809054906101000a900473ffffffffffffffffffffffffffffffffffffffff1673ffffffffffffffffffffffffffffffffffffffff1614611ecb576040517f08c379a00000000000000000000000000000000000000000000000000000000081526004018080602001828103825260208152602001807f4f776e61626c653a2063616c6c6572206973206e6f7420746865206f776e657281525060200191505060405180910390fd5b47905090565b611ed96135ce565b73ffffffffffffffffffffffffffffffffffffffff166000809054906101000a900473ffffffffffffffffffffffffffffffffffffffff1673ffffffffffffffffffffffffffffffffffffffff1614611f9a576040517f08c379a00000000000000000000000000000000000000000000000000000000081526004018080602001828103825260208152602001807f4f776e61626c653a2063616c6c6572206973206e6f7420746865206f776e657281525060200191505060405180910390fd5b600073ffffffffffffffffffffffffffffffffffffffff166000809054906101000a900473ffffffffffffffffffffffffffffffffffffffff1673ffffffffffffffffffffffffffffffffffffffff167f8be0079c531659141344cd1fd0a4f28419497f9722a3daafe3b4186f6b6457e060405160405180910390a360008060006101000a81548173ffffffffffffffffffffffffffffffffffffffff021916908373ffffffffffffffffffffffffffffffffffffffff160217905550565b6060600080600080600860008781526020019081526020016000206000016008600088815260200190815260200160002060010160009054906101000a900473ffffffffffffffffffffffffffffffffffffffff166008600089815260200190815260200160002060020160009054906101000a900473ffffffffffffffffffffffffffffffffffffffff16600860008a815260200190815260200160002060030154600860008b815260200190815260200160002060040154848054600181600116156101000203166002900480601f0160208091040260200160405190810160405280929190818152602001828054600181600116156101000203166002900480156121a85780601f1061217d576101008083540402835291602001916121a8565b820191906000526020600020905b81548152906001019060200180831161218b57829003601f168201915b505050505094509450945094509450945091939590929450565b60606000806000806000600b6000888152602001908152602001600020600001600b600089815260200190815260200160002060010154600b60008a815260200190815260200160002060020154600b60008b815260200190815260200160002060030154600b60008c815260200190815260200160002060040154600b60008d815260200190815260200160002060050160009054906101000a900460ff16858054600181600116156101000203166002900480601f0160208091040260200160405190810160405280929190818152602001828054600181600116156101000203166002900480156122f75780601f106122cc576101008083540402835291602001916122f7565b820191906000526020600020905b8154815290600101906020018083116122da57829003601f168201915b5050505050955095509550955095509550955091939550919395565b6000833373ffffffffffffffffffffffffffffffffffffffff16600a600083815260200190815260200160002060009054906101000a900473ffffffffffffffffffffffffffffffffffffffff1673ffffffffffffffffffffffffffffffffffffffff16146123cd576040517f08c379a00000000000000000000000000000000000000000000000000000000081526004018080602001828103825260218152602001806139fc6021913960400191505060405180910390fd5b600560009054906101000a900460ff1661244f576040517f08c379a00000000000000000000000000000000000000000000000000000000081526004018080602001828103825260208152602001807f536f7272792c204d61726b657420737461746520697320696e6163746976652181525060200191505060405180910390fd5b600083116124c5576040517f08c379a000000000000000000000000000000000000000000000000000000000815260040180806020018281038252601d8152602001807f536f7272792c20696e76616c69642070726f647563742070726963652100000081525060200191505060405180910390fd5b82600b6000868152602001908152602001600020600301819055507f9987862e9f463e3075602b8f1247bada327ce78280095dd85620ae7e879a8b6e8585604051808381526020018281526020019250505060405180910390a160019150509392505050565b600b602052806000526040600020600091509050806000018054600181600116156101000203166002900480601f0160208091040260200160405190810160405280929190818152602001828054600181600116156101000203166002900480156125d75780601f106125ac576101008083540402835291602001916125d7565b820191906000526020600020905b8154815290600101906020018083116125ba57829003601f168201915b5050505050908060010154908060020154908060030154908060040154908060050160009054906101000a900460ff16905086565b60008060009054906101000a900473ffffffffffffffffffffffffffffffffffffffff16905090565b6060600960003373ffffffffffffffffffffffffffffffffffffffff1673ffffffffffffffffffffffffffffffffffffffff1681526020019081526020016000208054806020026020016040519081016040528092919081815260200182805480156126c057602002820191906000526020600020905b8154815260200190600101908083116126ac575b5050505050905090565b600660003373ffffffffffffffffffffffffffffffffffffffff1673ffffffffffffffffffffffffffffffffffffffff16815260200190815260200160002060009054906101000a900460ff16612789576040517f08c379a00000000000000000000000000000000000000000000000000000000081526004018080602001828103825260198152602001807f536f7272792c20796f7520617265206e6f742061646d696e210000000000000081525060200191505060405180910390fd5b600560009054906101000a900460ff1661280b576040517f08c379a00000000000000000000000000000000000000000000000000000000081526004018080602001828103825260208152602001807f536f7272792c204d61726b657420737461746520697320696e6163746976652181525060200191505060405180910390fd5b60001515600760008373ffffffffffffffffffffffffffffffffffffffff1673ffffffffffffffffffffffffffffffffffffffff16815260200190815260200160002060009054906101000a900460ff161515146128b4576040517f08c379a0000000000000000000000000000000000000000000000000000000008152600401808060200182810382526022815260200180613a1d6022913960400191505060405180910390fd5b6001600760008373ffffffffffffffffffffffffffffffffffffffff1673ffffffffffffffffffffffffffffffffffffffff16815260200190815260200160002060006101000a81548160ff02191690831515021790555061291960015460016135d6565b6001819055507fc48be1259827f286158037425eac2071e5a2ce505bf01d53384e77fa0ef60da281604051808273ffffffffffffffffffffffffffffffffffffffff1673ffffffffffffffffffffffffffffffffffffffff16815260200191505060405180910390a150565b6000600760003373ffffffffffffffffffffffffffffffffffffffff1673ffffffffffffffffffffffffffffffffffffffff16815260200190815260200160002060009054906101000a900460ff1615612a2a576040517f08c379a00000000000000000000000000000000000000000000000000000000081526004018080602001828103825260328152602001806139406032913960400191505060405180910390fd5b600660003373ffffffffffffffffffffffffffffffffffffffff1673ffffffffffffffffffffffffffffffffffffffff16815260200190815260200160002060009054906101000a900460ff1615612acd576040517f08c379a000000000000000000000000000000000000000000000000000000000815260040180806020018281038252602c815260200180613998602c913960400191505060405180910390fd5b600560009054906101000a900460ff16612b4f576040517f08c379a00000000000000000000000000000000000000000000000000000000081526004018080602001828103825260208152602001807f536f7272792c204d61726b657420737461746520697320696e6163746976652181525060200191505060405180910390fd5b34600b6000848152602001908152602001600020600301541115612bbe576040517f08c379a00000000000000000000000000000000000000000000000000000000081526004018080602001828103825260388152602001806139c46038913960400191505060405180910390fd5b6000600b60008481526020019081526020016000206004015411612c4a576040517f08c379a00000000000000000000000000000000000000000000000000000000081526004018080602001828103825260208152602001807f536f7272792c2070726f64756374206973206e6f7420617661696c61626c652181525060200191505060405180910390fd5b6000612c6c34600b60008681526020019081526020016000206003015461365e565b9050612c8e600b600085815260200190815260200160002060040154826136a8565b600b6000858152602001908152602001600020600401819055506000600b6000858152602001908152602001600020600401541415612cf7576000600b600085815260200190815260200160002060050160006101000a81548160ff0219169083151502179055505b612d176008600086815260200190815260200160002060040154346135d6565b60086000868152602001908152602001600020600401819055507f324053f20c3456e1c74e05e0171fc80eff371fe7eb33719a81ecded399e31e3484848333604051808581526020018481526020018381526020018273ffffffffffffffffffffffffffffffffffffffff1673ffffffffffffffffffffffffffffffffffffffff16815260200194505050505060405180910390a1600191505092915050565b60035481565b600560009054906101000a900460ff1681565b60015481565b6000843373ffffffffffffffffffffffffffffffffffffffff16600a600083815260200190815260200160002060009054906101000a900473ffffffffffffffffffffffffffffffffffffffff1673ffffffffffffffffffffffffffffffffffffffff1614612e90576040517f08c379a00000000000000000000000000000000000000000000000000000000081526004018080602001828103825260218152602001806139fc6021913960400191505060405180910390fd5b600560009054906101000a900460ff16612f12576040517f08c379a00000000000000000000000000000000000000000000000000000000081526004018080602001828103825260208152602001807f536f7272792c204d61726b657420737461746520697320696e6163746976652181525060200191505060405180910390fd5b60008411612f88576040517f08c379a000000000000000000000000000000000000000000000000000000000815260040180806020018281038252601d8152602001807f536f7272792c20696e76616c69642070726f647563742070726963652100000081525060200191505060405180910390fd5b60008311612ffe576040517f08c379a00000000000000000000000000000000000000000000000000000000081526004018080602001828103825260208152602001807f536f7272792c20696e76616c69642070726f64756374207175616e746974792181525060200191505060405180910390fd5b61301f600860008881526020019081526020016000206003015460016135d6565b600860008881526020019081526020016000206003018190555061304660045460016135d6565b6004819055506040518060c00160405280868152602001878152602001600454815260200185815260200184815260200160011515815250600b6000600454815260200190815260200160002060008201518160000190805190602001906130af929190613878565b506020820151816001015560408201518160020155606082015181600301556080820151816004015560a08201518160050160006101000a81548160ff021916908315150217905550905050600c600087815260200190815260200160002060045490806001815401808255809150506001900390600052602060002001600090919091909150557fffc61c86dc65391f52b36f4b6e6bbdf5a9352c0bdfa13d44bbcf775695cf844a86866004546040518084815260200180602001838152602001828103825284818151815260200191508051906020019080838360005b838110156131a957808201518184015260208101905061318e565b50505050905090810190601f1680156131d65780820380516001836020036101000a031916815260200191505b5094505050505060405180910390a1600454915050949350505050565b600660003373ffffffffffffffffffffffffffffffffffffffff1673ffffffffffffffffffffffffffffffffffffffff16815260200190815260200160002060009054906101000a900460ff166132b2576040517f08c379a00000000000000000000000000000000000000000000000000000000081526004018080602001828103825260198152602001807f536f7272792c20796f7520617265206e6f742061646d696e210000000000000081525060200191505060405180910390fd5b801515600560009054906101000a900460ff161515141561331e576040517f08c379a000000000000000000000000000000000000000000000000000000000815260040180806020018281038252602281526020018061391e6022913960400191505060405180910390fd5b80600560006101000a81548160ff0219169083151502179055507fe9c1b24a64a472afd01a6d6091bc183170b8e6dbe9dad7dfb6f81adac3ee982881604051808215151515815260200191505060405180910390a150565b6000600560009054906101000a900460ff16905090565b60045481565b61339b6135ce565b73ffffffffffffffffffffffffffffffffffffffff166000809054906101000a900473ffffffffffffffffffffffffffffffffffffffff1673ffffffffffffffffffffffffffffffffffffffff161461345c576040517f08c379a00000000000000000000000000000000000000000000000000000000081526004018080602001828103825260208152602001807f4f776e61626c653a2063616c6c6572206973206e6f7420746865206f776e657281525060200191505060405180910390fd5b600073ffffffffffffffffffffffffffffffffffffffff168173ffffffffffffffffffffffffffffffffffffffff1614156134e2576040517f08c379a00000000000000000000000000000000000000000000000000000000081526004018080602001828103825260268152602001806139726026913960400191505060405180910390fd5b8073ffffffffffffffffffffffffffffffffffffffff166000809054906101000a900473ffffffffffffffffffffffffffffffffffffffff1673ffffffffffffffffffffffffffffffffffffffff167f8be0079c531659141344cd1fd0a4f28419497f9722a3daafe3b4186f6b6457e060405160405180910390a3806000806101000a81548173ffffffffffffffffffffffffffffffffffffffff021916908373ffffffffffffffffffffffffffffffffffffffff16021790555050565b600c60205281600052604060002081815481106135b957fe5b90600052602060002001600091509150505481565b600033905090565b600080828401905083811015613654576040517f08c379a000000000000000000000000000000000000000000000000000000000815260040180806020018281038252601b8152602001807f536166654d6174683a206164646974696f6e206f766572666c6f77000000000081525060200191505060405180910390fd5b8091505092915050565b60006136a083836040518060400160405280601a81526020017f536166654d6174683a206469766973696f6e206279207a65726f0000000000008152506136f2565b905092915050565b60006136ea83836040518060400160405280601e81526020017f536166654d6174683a207375627472616374696f6e206f766572666c6f7700008152506137b8565b905092915050565b6000808311829061379e576040517f08c379a00000000000000000000000000000000000000000000000000000000081526004018080602001828103825283818151815260200191508051906020019080838360005b83811015613763578082015181840152602081019050613748565b50505050905090810190601f1680156137905780820380516001836020036101000a031916815260200191505b509250505060405180910390fd5b5060008385816137aa57fe5b049050809150509392505050565b6000838311158290613865576040517f08c379a00000000000000000000000000000000000000000000000000000000081526004018080602001828103825283818151815260200191508051906020019080838360005b8381101561382a57808201518184015260208101905061380f565b50505050905090810190601f1680156138575780820380516001836020036101000a031916815260200191505b509250505060405180910390fd5b5060008385039050809150509392505050565b828054600181600116156101000203166002900490600052602060002090601f016020900481019282601f106138b957805160ff19168380011785556138e7565b828001600101855582156138e7579182015b828111156138e65782518255916020019190600101906138cb565b5b5090506138f491906138f8565b5090565b61391a91905b808211156139165760008160009055506001016138fe565b5090565b9056fe536f7272792c2074686973206973207468652063757272656e742073746174652121536f7272792c2073746f7265206f776e6572206973206e6f7420616c6c6f77656420746f206275792070726f6475637473214f776e61626c653a206e6577206f776e657220697320746865207a65726f2061646472657373536f7272792c2061646d696e206973206e6f7420616c6c6f77656420746f206275792070726f647563747321536f7272792c207472616e736665727265642076616c7565206973206c657373207468616e207468652070726f6475637420707269636521536f7272792c20796f7520617265206e6f7420612073746f7265206f776e657221536f7272792c2073746f7265206f776e657220616c72656164792065786973747321a2646970667358221220dd616c05e8b734dee7c9bb749a0c87ecff292fa69ec19329d717ae4ffcd4693b64736f6c63430006020033",
  "source": "//SPDX-License-Identifier: MIT\n\npragma solidity >=0.5.16 <0.8.0;\n\nimport \"@openzeppelin/contracts/access/Ownable.sol\";\nimport \"@openzeppelin/contracts/math/SafeMath.sol\";\n\n///@title MarketPlace DApp\n///@author Zeinab-Salimi\n///@notice Simple Market Place for Consensys 2020 Bootcamp Final Project\n\ncontract MarketPlace is Ownable {\n    //Uses SafeMath library to avoid integer overflow/underflow attacks\n    using SafeMath for uint256;\n\n    uint256 public storeOwnersCount;\n    uint256 public adminCount;\n    uint256 public storeCount;\n    uint256 public productCount;\n    bool public marktState;\n    mapping(address => bool) public admins;\n    mapping(address => bool) public storeOwners;\n    mapping(uint256 => StoreFront) public storeFronts;\n    mapping(address => uint256[]) public storeOwnertoStoreFront;\n    mapping(uint256 => address) public storeFronttoStoreOwner;\n    mapping(uint256 => Product) public StoreProducts;\n    mapping(uint256 => uint256[]) public stotrFronttoProducts;\n\n    struct StoreFront {\n        string storeName;\n        address storeOwner;\n        address approverAdmin;\n        uint256 skuCount;\n        uint256 balance;\n    }\n\n    struct Product {\n        string name;\n        uint256 storeNum;\n        uint256 productNum;\n        uint256 price;\n        uint256 quantity;\n        bool isAvailable;\n    }\n\n    enum addressTypes {admin, storeOwner, shopper}\n\n    event marketStateChanged(bool state);\n    event storeOwnerAdded(address newStoreOwner);\n    event storeFrontCreated(\n        uint256 storeNum,\n        string storeName,\n        address storeOwner\n    );\n    event productAdded(\n        uint256 storeNum,\n        string productName,\n        uint256 productNum\n    );\n    event productPriceUpdated(uint256 storeNum, uint256 productNum);\n    event productRemoved(uint256 storeNum, uint256 productNum);\n    event storeWithdrawn(uint256 amount, uint256 storeNum, address storeOwner);\n    event productPurchased(\n        uint256 storeNum,\n        uint256 productNum,\n        uint256 quantity,\n        address shopper\n    );\n\n    /** @dev verifies the msg.sender is an admin */\n    modifier onlyAdmin() {\n        require(admins[msg.sender], \"Sorry, you are not admin!\");\n        _;\n    }\n\n    /** @dev verifies the msg.sender is the store owner */\n    modifier onlyStoreOwner() {\n        require(storeOwners[msg.sender], \"Sorry, you are not a store owner!\");\n        _;\n    }\n\n    /** @dev verifies the msg.sender is not a store owner or admin */\n    modifier onlyShopper() {\n        require(\n            !storeOwners[msg.sender],\n            \"Sorry, store owner is not allowed to buy products!\"\n        );\n        require(\n            !admins[msg.sender],\n            \"Sorry, admin is not allowed to buy products!\"\n        );\n        _;\n    }\n\n    /** @dev verifies market state */\n    modifier isMarketActive() {\n        require(marktState, \"Sorry, Market state is inactive!\");\n        _;\n    }\n\n    /** @dev verifies the msg.sender is the store owner of the store front */\n    modifier verifyStoreOwner(uint256 storeNum) {\n        require(\n            storeFronttoStoreOwner[storeNum] == msg.sender,\n            \"Sorry, you are not a store owner!\"\n        );\n        _;\n    }\n\n    /** @dev constracter initalises state variables */\n    constructor() public {\n        admins[msg.sender] = true;\n        storeOwnersCount = 0;\n        adminCount = 1;\n        storeCount = 0;\n        productCount = 0;\n        marktState = true;\n    }\n\n    /**-----------------------------------------------------------------------\n        ------------------------ Admin Functions ----------------------\n       -----------------------------------------------------------------------*/\n\n    /** @dev admin allowed to add a new store owner\n     * @param _newStoreOwner new store owner addrress\n     */\n    function addStoreOwner(address _newStoreOwner)\n        public\n        onlyAdmin()\n        isMarketActive()\n    {\n        require(\n            storeOwners[_newStoreOwner] == false,\n            \"Sorry, store owner already exists!\"\n        );\n        storeOwners[_newStoreOwner] = true;\n        storeOwnersCount = SafeMath.add(storeOwnersCount, 1);\n        emit storeOwnerAdded(_newStoreOwner);\n    }\n\n    /** @dev market owner allowed to chainge marketplace state\n     * @param _state new market state\n     */\n    function changeMarketState(bool _state) public onlyAdmin() {\n        require(marktState != _state, \"Sorry, this is the current state!!\");\n        marktState = _state;\n        emit marketStateChanged(_state);\n    }\n\n    /** @dev returns the current state of marketplace */\n    function getMarketState() public view returns (bool) {\n        return marktState;\n    }\n\n    /** @dev returns (true) if the address is an admin, otherwise returns (false) */\n    function isAdmin(address _address) public view returns (bool) {\n        return admins[_address];\n    }\n\n    /** @dev returns (true) if the address is store owner, otherwise returns (false) */\n    function isStoreOwner(address _address) public view returns (bool) {\n        return storeOwners[_address];\n    }\n\n    /** @dev returns the number of active store owners */\n    function getNumberOfStoreOwners()\n        public\n        view\n        onlyAdmin()\n        returns (uint256)\n    {\n        return storeOwnersCount;\n    }\n\n    /** @dev returns the type of address (market owner, admin, store owner, or shopper) */\n    function addressType() public view returns (addressTypes) {\n        if (msg.sender == super.owner()) return addressTypes.admin;\n        if (storeOwners[msg.sender]) return addressTypes.storeOwner;\n        else return addressTypes.shopper;\n    }\n\n    /** @dev View contract balance\n     * @return balance of all store fronts\n     */\n\n    function getContractBalance() public view onlyOwner() returns (uint256) {\n        return address(this).balance;\n    }\n\n    /** @dev selfdestruct the contract to destroy the contract in case of bugs */\n    function destroyContract() public onlyOwner() {\n        selfdestruct(address(this));\n    }\n\n    /**-----------------------------------------------------------------------\n        ------------------------ Store Owner Functions ----------------------\n       -----------------------------------------------------------------------*/\n\n    /** @dev store owner is allowed to add a new store front\n     * @param _storeName new market state\n     * @return the store number\n     */\n    function createStoreFront(string memory _storeName)\n        public\n        onlyStoreOwner()\n        isMarketActive()\n        returns (bool)\n    {\n        storeCount = SafeMath.add(storeCount, 1);\n        storeFronts[storeCount] = StoreFront({\n            storeName: _storeName,\n            storeOwner: msg.sender,\n            approverAdmin: address(0),\n            skuCount: 0,\n            balance: 0\n        });\n        storeOwnertoStoreFront[msg.sender].push(storeCount);\n        storeFronttoStoreOwner[storeCount] = msg.sender;\n        emit storeFrontCreated(storeCount, _storeName, msg.sender);\n        return true;\n    }\n\n    /** @dev Store owner allowed to add a new product to their store front\n     * @param _storeNum storefront number\n     * @param _productName product name\n     * @param _productPrice product price\n     * @param _productQuantity available quantity of the product\n     */\n\n    function addProduct(\n        uint256 _storeNum,\n        string memory _productName,\n        uint256 _productPrice,\n        uint256 _productQuantity\n    ) public verifyStoreOwner(_storeNum) isMarketActive() returns (uint256) {\n        require(_productPrice > 0, \"Sorry, invalid product price!\");\n        require(_productQuantity > 0, \"Sorry, invalid product quantity!\");\n        storeFronts[_storeNum].skuCount = SafeMath.add(\n            storeFronts[_storeNum].skuCount,\n            1\n        );\n        productCount = SafeMath.add(productCount, 1);\n        StoreProducts[productCount] = Product({\n            name: _productName,\n            storeNum: _storeNum,\n            productNum: productCount,\n            price: _productPrice,\n            quantity: _productQuantity,\n            isAvailable: true\n        });\n        stotrFronttoProducts[_storeNum].push(productCount);\n        emit productAdded(_storeNum, _productName, productCount);\n        return productCount;\n    }\n\n    /** @dev Store owner allowed to update product price\n     * @param _storeNum store front number\n     * @param _productNum product nunmber\n     * @param _newProductPrice product price\n     */\n\n    function updateProductPrice(\n        uint256 _storeNum,\n        uint256 _productNum,\n        uint256 _newProductPrice\n    ) public verifyStoreOwner(_storeNum) isMarketActive() returns (bool) {\n        require(_newProductPrice > 0, \"Sorry, invalid product price!\");\n        StoreProducts[_productNum].price = _newProductPrice;\n        emit productPriceUpdated(_storeNum, _productNum);\n        return true;\n    }\n\n    /** @dev Store owner allowed to remove product\n     * @param _storeNum store front number\n     * @param _productNum product nunmber\n     */\n\n    function removeProduct(uint256 _storeNum, uint256 _productNum)\n        public\n        verifyStoreOwner(_storeNum)\n        isMarketActive()\n        returns (bool)\n    {\n        StoreProducts[_productNum].isAvailable = false;\n        StoreProducts[_productNum].quantity = 0;\n        emit productRemoved(_storeNum, _productNum);\n        return true;\n    }\n\n    /** @dev return total number of store fronts */  \n    function getStoreFrontCount() public view returns (uint) {\n        return storeCount;\n    }\n\n    /** @dev Store owner can withdraw balance from their store fronts\n     * @param _storeNum store front number\n     */\n    function withdraw(uint256 _storeNum)\n        public\n        payable\n        verifyStoreOwner(_storeNum)\n        isMarketActive()\n    {\n        require(\n            storeFronts[_storeNum].balance > 0,\n            \"Sorry, no funds available!\"\n        );\n        uint256 amount = storeFronts[_storeNum].balance;\n        storeFronts[_storeNum].balance = 0;\n        msg.sender.transfer(amount);\n        emit storeWithdrawn(amount, _storeNum, msg.sender);\n    }\n\n    /** @dev return store front info\n     * @param _storeNum store front number\n     */\n\n    function getStoreFrontInfo(uint256 _storeNum)\n        public\n        view\n        returns (\n            string memory,\n            address,\n            address,\n            uint256,\n            uint256\n        )\n    {\n        return (\n            storeFronts[_storeNum].storeName,\n            storeFronts[_storeNum].storeOwner,\n            storeFronts[_storeNum].approverAdmin,\n            storeFronts[_storeNum].skuCount,\n            storeFronts[_storeNum].balance\n        );\n    }\n\n    /** @dev return store front by store owner address */ \n    function getStoreFrontByStoreOwner() public view  returns(uint[] memory){\n        return storeOwnertoStoreFront[msg.sender];\n    }\n\n\n    /** @dev return products info\n     * @param _productNum product number\n     */\n\n    function getProductInfo(uint256 _productNum)\n        public\n        view\n        returns (\n            string memory,\n            uint256,\n            uint256,\n            uint256,\n            uint256,\n            bool\n        )\n    {\n        return (\n            StoreProducts[_productNum].name,\n            StoreProducts[_productNum].storeNum,\n            StoreProducts[_productNum].productNum,\n            StoreProducts[_productNum].price,\n            StoreProducts[_productNum].quantity,\n            StoreProducts[_productNum].isAvailable\n        );\n    }\n\n\n    /** @dev return products by store front\n      * @param _storeNum store front number\n    */ \n    function getProductsByStoreFront(uint _storeNum) public view returns(uint[] memory){\n        return stotrFronttoProducts[_storeNum];\n    }\n    \n\n    /**-----------------------------------------------------------------------\n        -------------------------- Shopper Functions ------------------------\n       -----------------------------------------------------------------------*/\n\n    /** @dev Shopper allowed to purchase a product\n     * @param _storeNum store front number\n     * @param _productNum product number\n     */\n\n    function purchaseProduct(uint256 _storeNum, uint256 _productNum)\n        public\n        payable\n        onlyShopper()\n        isMarketActive()\n        returns (bool)\n    {\n        require(\n            StoreProducts[_productNum].price <= msg.value,\n            \"Sorry, transferred value is less than the product price!\"\n        );\n        require(\n            StoreProducts[_productNum].quantity > 0,\n            \"Sorry, product is not available!\"\n        );\n\n        uint256 quantity = SafeMath.div(\n            msg.value,\n            StoreProducts[_productNum].price\n        );\n        StoreProducts[_productNum].quantity = SafeMath.sub(\n            StoreProducts[_productNum].quantity,\n            quantity\n        );\n\n        if (StoreProducts[_productNum].quantity == 0) {\n            StoreProducts[_productNum].isAvailable = false;\n        }\n\n        storeFronts[_storeNum].balance = SafeMath.add(\n            storeFronts[_storeNum].balance,\n            msg.value\n        );\n\n        emit productPurchased(_storeNum, _productNum, quantity, msg.sender);\n        return true;\n    }\n\n    /** @dev fallback function */\n    receive() external payable {\n        revert();\n    }\n}\n",
  "sourcePath": "/home/dunno/Desktop/dapp/onlineMarket/contracts/MarketPlace.sol",
  "compiler": {
    "name": "solc",
    "version": "0.6.2+commit.bacdbe57.Emscripten.clang"
  },
  "schemaVersion": "3.2.5",
  "updatedAt": "2020-12-14T18:21:53.750Z",
  "networkType": "ethereum",
  "devdoc": {
    "author": "Zeinab-Salimi",
    "methods": {
      "addProduct(uint256,string,uint256,uint256)": {
        "details": "Store owner allowed to add a new product to their store front",
        "params": {
          "_productName": "product name",
          "_productPrice": "product price",
          "_productQuantity": "available quantity of the product",
          "_storeNum": "storefront number"
        }
      },
      "addStoreOwner(address)": {
        "details": "admin allowed to add a new store owner",
        "params": {
          "_newStoreOwner": "new store owner addrress"
        }
      },
      "addressType()": {
        "details": "returns the type of address (market owner, admin, store owner, or shopper) "
      },
      "changeMarketState(bool)": {
        "details": "market owner allowed to chainge marketplace state",
        "params": {
          "_state": "new market state"
        }
      },
      "constructor": {
        "details": "constracter initalises state variables "
      },
      "createStoreFront(string)": {
        "details": "store owner is allowed to add a new store front",
        "params": {
          "_storeName": "new market state"
        },
        "returns": {
          "_0": "the store number"
        }
      },
      "destroyContract()": {
        "details": "selfdestruct the contract to destroy the contract in case of bugs "
      },
      "getContractBalance()": {
        "details": "View contract balance",
        "returns": {
          "_0": "balance of all store fronts"
        }
      },
      "getMarketState()": {
        "details": "returns the current state of marketplace "
      },
      "getNumberOfStoreOwners()": {
        "details": "returns the number of active store owners "
      },
      "getProductInfo(uint256)": {
        "details": "return products info",
        "params": {
          "_productNum": "product number"
        }
      },
      "getProductsByStoreFront(uint256)": {
        "details": "return products by store front",
        "params": {
          "_storeNum": "store front number"
        }
      },
      "getStoreFrontByStoreOwner()": {
        "details": "return store front by store owner address "
      },
      "getStoreFrontCount()": {
        "details": "return total number of store fronts "
      },
      "getStoreFrontInfo(uint256)": {
        "details": "return store front info",
        "params": {
          "_storeNum": "store front number"
        }
      },
      "isAdmin(address)": {
        "details": "returns (true) if the address is an admin, otherwise returns (false) "
      },
      "isStoreOwner(address)": {
        "details": "returns (true) if the address is store owner, otherwise returns (false) "
      },
      "owner()": {
        "details": "Returns the address of the current owner."
      },
      "purchaseProduct(uint256,uint256)": {
        "details": "Shopper allowed to purchase a product",
        "params": {
          "_productNum": "product number",
          "_storeNum": "store front number"
        }
      },
      "removeProduct(uint256,uint256)": {
        "details": "Store owner allowed to remove product",
        "params": {
          "_productNum": "product nunmber",
          "_storeNum": "store front number"
        }
      },
      "renounceOwnership()": {
        "details": "Leaves the contract without owner. It will not be possible to call `onlyOwner` functions anymore. Can only be called by the current owner.     * NOTE: Renouncing ownership will leave the contract without an owner, thereby removing any functionality that is only available to the owner."
      },
      "transferOwnership(address)": {
        "details": "Transfers ownership of the contract to a new account (`newOwner`). Can only be called by the current owner."
      },
      "updateProductPrice(uint256,uint256,uint256)": {
        "details": "Store owner allowed to update product price",
        "params": {
          "_newProductPrice": "product price",
          "_productNum": "product nunmber",
          "_storeNum": "store front number"
        }
      },
      "withdraw(uint256)": {
        "details": "Store owner can withdraw balance from their store fronts",
        "params": {
          "_storeNum": "store front number"
        }
      }
    },
    "title": "MarketPlace DApp"
  },
  "userdoc": {
    "methods": {},
    "notice": "Simple Market Place for Consensys 2020 Bootcamp Final Project"
  }
}