{
  "contractName": "MarketPlace",
  "abi": [
    {
      "inputs": [],
      "stateMutability": "nonpayable",
      "type": "constructor"
    },
    {
      "anonymous": false,
      "inputs": [
        {
          "indexed": true,
          "internalType": "address",
          "name": "previousOwner",
          "type": "address"
        },
        {
          "indexed": true,
          "internalType": "address",
          "name": "newOwner",
          "type": "address"
        }
      ],
      "name": "OwnershipTransferred",
      "type": "event"
    },
    {
      "anonymous": false,
      "inputs": [
        {
          "indexed": false,
          "internalType": "address",
          "name": "newAdmin",
          "type": "address"
        }
      ],
      "name": "adminAdded",
      "type": "event"
    },
    {
      "anonymous": false,
      "inputs": [
        {
          "indexed": false,
          "internalType": "address",
          "name": "admin",
          "type": "address"
        }
      ],
      "name": "adminRemoved",
      "type": "event"
    },
    {
      "anonymous": false,
      "inputs": [
        {
          "indexed": false,
          "internalType": "uint256",
          "name": "storeNum",
          "type": "uint256"
        },
        {
          "indexed": false,
          "internalType": "string",
          "name": "productName",
          "type": "string"
        },
        {
          "indexed": false,
          "internalType": "uint256",
          "name": "productNum",
          "type": "uint256"
        }
      ],
      "name": "productAdded",
      "type": "event"
    },
    {
      "anonymous": false,
      "inputs": [
        {
          "indexed": false,
          "internalType": "uint256",
          "name": "storeNum",
          "type": "uint256"
        },
        {
          "indexed": false,
          "internalType": "uint256",
          "name": "productNum",
          "type": "uint256"
        }
      ],
      "name": "productPriceUpdated",
      "type": "event"
    },
    {
      "anonymous": false,
      "inputs": [
        {
          "indexed": false,
          "internalType": "uint256",
          "name": "storeNum",
          "type": "uint256"
        },
        {
          "indexed": false,
          "internalType": "uint256",
          "name": "productNum",
          "type": "uint256"
        },
        {
          "indexed": false,
          "internalType": "uint256",
          "name": "quantity",
          "type": "uint256"
        },
        {
          "indexed": false,
          "internalType": "address",
          "name": "shopper",
          "type": "address"
        }
      ],
      "name": "productPurchased",
      "type": "event"
    },
    {
      "anonymous": false,
      "inputs": [
        {
          "indexed": false,
          "internalType": "uint256",
          "name": "storeNum",
          "type": "uint256"
        },
        {
          "indexed": false,
          "internalType": "uint256",
          "name": "productNum",
          "type": "uint256"
        }
      ],
      "name": "productRemoved",
      "type": "event"
    },
    {
      "anonymous": false,
      "inputs": [
        {
          "indexed": false,
          "internalType": "uint256",
          "name": "storeNum",
          "type": "uint256"
        },
        {
          "indexed": false,
          "internalType": "address",
          "name": "admin",
          "type": "address"
        }
      ],
      "name": "storeFrontApproved",
      "type": "event"
    },
    {
      "anonymous": false,
      "inputs": [
        {
          "indexed": false,
          "internalType": "uint256",
          "name": "storeNum",
          "type": "uint256"
        },
        {
          "indexed": false,
          "internalType": "string",
          "name": "storeName",
          "type": "string"
        },
        {
          "indexed": false,
          "internalType": "address",
          "name": "storeOwner",
          "type": "address"
        }
      ],
      "name": "storeFrontCreated",
      "type": "event"
    },
    {
      "anonymous": false,
      "inputs": [
        {
          "indexed": false,
          "internalType": "address",
          "name": "newStoreOwner",
          "type": "address"
        }
      ],
      "name": "storeOwnerAdded",
      "type": "event"
    },
    {
      "anonymous": false,
      "inputs": [
        {
          "indexed": false,
          "internalType": "address",
          "name": "storeOwner",
          "type": "address"
        }
      ],
      "name": "storeOwnerRemoved",
      "type": "event"
    },
    {
      "anonymous": false,
      "inputs": [
        {
          "indexed": false,
          "internalType": "uint256",
          "name": "amount",
          "type": "uint256"
        },
        {
          "indexed": false,
          "internalType": "uint256",
          "name": "storeNum",
          "type": "uint256"
        },
        {
          "indexed": false,
          "internalType": "address",
          "name": "storeOwner",
          "type": "address"
        }
      ],
      "name": "storeWithdrawn",
      "type": "event"
    },
    {
      "inputs": [
        {
          "internalType": "uint256",
          "name": "",
          "type": "uint256"
        }
      ],
      "name": "StoreProducts",
      "outputs": [
        {
          "internalType": "string",
          "name": "name",
          "type": "string"
        },
        {
          "internalType": "uint256",
          "name": "storeNum",
          "type": "uint256"
        },
        {
          "internalType": "uint256",
          "name": "productNum",
          "type": "uint256"
        },
        {
          "internalType": "uint256",
          "name": "price",
          "type": "uint256"
        },
        {
          "internalType": "uint256",
          "name": "quantity",
          "type": "uint256"
        },
        {
          "internalType": "bool",
          "name": "isAvailable",
          "type": "bool"
        }
      ],
      "stateMutability": "view",
      "type": "function",
      "constant": true
    },
    {
      "inputs": [],
      "name": "adminCount",
      "outputs": [
        {
          "internalType": "uint256",
          "name": "",
          "type": "uint256"
        }
      ],
      "stateMutability": "view",
      "type": "function",
      "constant": true
    },
    {
      "inputs": [
        {
          "internalType": "address",
          "name": "",
          "type": "address"
        }
      ],
      "name": "admins",
      "outputs": [
        {
          "internalType": "bool",
          "name": "",
          "type": "bool"
        }
      ],
      "stateMutability": "view",
      "type": "function",
      "constant": true
    },
    {
      "inputs": [],
      "name": "owner",
      "outputs": [
        {
          "internalType": "address",
          "name": "",
          "type": "address"
        }
      ],
      "stateMutability": "view",
      "type": "function",
      "constant": true
    },
    {
      "inputs": [],
      "name": "productCount",
      "outputs": [
        {
          "internalType": "uint256",
          "name": "",
          "type": "uint256"
        }
      ],
      "stateMutability": "view",
      "type": "function",
      "constant": true
    },
    {
      "inputs": [],
      "name": "renounceOwnership",
      "outputs": [],
      "stateMutability": "nonpayable",
      "type": "function"
    },
    {
      "inputs": [],
      "name": "storeCount",
      "outputs": [
        {
          "internalType": "uint256",
          "name": "",
          "type": "uint256"
        }
      ],
      "stateMutability": "view",
      "type": "function",
      "constant": true
    },
    {
      "inputs": [
        {
          "internalType": "uint256",
          "name": "",
          "type": "uint256"
        }
      ],
      "name": "storeFronts",
      "outputs": [
        {
          "internalType": "string",
          "name": "storeName",
          "type": "string"
        },
        {
          "internalType": "address",
          "name": "storeOwner",
          "type": "address"
        },
        {
          "internalType": "address",
          "name": "approverAdmin",
          "type": "address"
        },
        {
          "internalType": "uint256",
          "name": "skuCount",
          "type": "uint256"
        },
        {
          "internalType": "uint256",
          "name": "balance",
          "type": "uint256"
        }
      ],
      "stateMutability": "view",
      "type": "function",
      "constant": true
    },
    {
      "inputs": [
        {
          "internalType": "uint256",
          "name": "",
          "type": "uint256"
        }
      ],
      "name": "storeFronttoStoreOwner",
      "outputs": [
        {
          "internalType": "address",
          "name": "",
          "type": "address"
        }
      ],
      "stateMutability": "view",
      "type": "function",
      "constant": true
    },
    {
      "inputs": [
        {
          "internalType": "address",
          "name": "",
          "type": "address"
        }
      ],
      "name": "storeOwners",
      "outputs": [
        {
          "internalType": "bool",
          "name": "",
          "type": "bool"
        }
      ],
      "stateMutability": "view",
      "type": "function",
      "constant": true
    },
    {
      "inputs": [],
      "name": "storeOwnersCount",
      "outputs": [
        {
          "internalType": "uint256",
          "name": "",
          "type": "uint256"
        }
      ],
      "stateMutability": "view",
      "type": "function",
      "constant": true
    },
    {
      "inputs": [
        {
          "internalType": "address",
          "name": "",
          "type": "address"
        },
        {
          "internalType": "uint256",
          "name": "",
          "type": "uint256"
        }
      ],
      "name": "storeOwnertoStoreFront",
      "outputs": [
        {
          "internalType": "uint256",
          "name": "",
          "type": "uint256"
        }
      ],
      "stateMutability": "view",
      "type": "function",
      "constant": true
    },
    {
      "inputs": [
        {
          "internalType": "uint256",
          "name": "",
          "type": "uint256"
        },
        {
          "internalType": "uint256",
          "name": "",
          "type": "uint256"
        }
      ],
      "name": "stotrFronttoProducts",
      "outputs": [
        {
          "internalType": "uint256",
          "name": "",
          "type": "uint256"
        }
      ],
      "stateMutability": "view",
      "type": "function",
      "constant": true
    },
    {
      "inputs": [
        {
          "internalType": "address",
          "name": "newOwner",
          "type": "address"
        }
      ],
      "name": "transferOwnership",
      "outputs": [],
      "stateMutability": "nonpayable",
      "type": "function"
    },
    {
      "stateMutability": "payable",
      "type": "receive",
      "payable": true
    },
    {
      "inputs": [
        {
          "internalType": "address",
          "name": "_newStoreOwner",
          "type": "address"
        }
      ],
      "name": "addStoreOwner",
      "outputs": [],
      "stateMutability": "nonpayable",
      "type": "function"
    },
    {
      "inputs": [
        {
          "internalType": "address",
          "name": "_address",
          "type": "address"
        }
      ],
      "name": "isAdmin",
      "outputs": [
        {
          "internalType": "bool",
          "name": "",
          "type": "bool"
        }
      ],
      "stateMutability": "view",
      "type": "function",
      "constant": true
    },
    {
      "inputs": [
        {
          "internalType": "address",
          "name": "_address",
          "type": "address"
        }
      ],
      "name": "isStoreOwner",
      "outputs": [
        {
          "internalType": "bool",
          "name": "",
          "type": "bool"
        }
      ],
      "stateMutability": "view",
      "type": "function",
      "constant": true
    },
    {
      "inputs": [],
      "name": "addressType",
      "outputs": [
        {
          "internalType": "enum MarketPlace.addressTypes",
          "name": "",
          "type": "uint8"
        }
      ],
      "stateMutability": "view",
      "type": "function",
      "constant": true
    },
    {
      "inputs": [],
      "name": "getContractBalance",
      "outputs": [
        {
          "internalType": "uint256",
          "name": "",
          "type": "uint256"
        }
      ],
      "stateMutability": "view",
      "type": "function",
      "constant": true
    },
    {
      "inputs": [],
      "name": "destroyContract",
      "outputs": [],
      "stateMutability": "nonpayable",
      "type": "function"
    },
    {
      "inputs": [
        {
          "internalType": "string",
          "name": "_storeName",
          "type": "string"
        }
      ],
      "name": "createStoreFront",
      "outputs": [
        {
          "internalType": "bool",
          "name": "",
          "type": "bool"
        }
      ],
      "stateMutability": "nonpayable",
      "type": "function"
    },
    {
      "inputs": [
        {
          "internalType": "uint256",
          "name": "_storeNum",
          "type": "uint256"
        },
        {
          "internalType": "string",
          "name": "_productName",
          "type": "string"
        },
        {
          "internalType": "uint256",
          "name": "_productPrice",
          "type": "uint256"
        },
        {
          "internalType": "uint256",
          "name": "_productQuantity",
          "type": "uint256"
        }
      ],
      "name": "addProduct",
      "outputs": [
        {
          "internalType": "uint256",
          "name": "",
          "type": "uint256"
        }
      ],
      "stateMutability": "nonpayable",
      "type": "function"
    },
    {
      "inputs": [
        {
          "internalType": "uint256",
          "name": "_storeNum",
          "type": "uint256"
        },
        {
          "internalType": "uint256",
          "name": "_productNum",
          "type": "uint256"
        },
        {
          "internalType": "uint256",
          "name": "_newProductPrice",
          "type": "uint256"
        }
      ],
      "name": "updateProductPrice",
      "outputs": [
        {
          "internalType": "bool",
          "name": "",
          "type": "bool"
        }
      ],
      "stateMutability": "nonpayable",
      "type": "function"
    },
    {
      "inputs": [
        {
          "internalType": "uint256",
          "name": "_storeNum",
          "type": "uint256"
        },
        {
          "internalType": "uint256",
          "name": "_productNum",
          "type": "uint256"
        }
      ],
      "name": "removeProduct",
      "outputs": [
        {
          "internalType": "bool",
          "name": "",
          "type": "bool"
        }
      ],
      "stateMutability": "nonpayable",
      "type": "function"
    },
    {
      "inputs": [
        {
          "internalType": "uint256",
          "name": "_storeNum",
          "type": "uint256"
        }
      ],
      "name": "withdraw",
      "outputs": [],
      "stateMutability": "payable",
      "type": "function",
      "payable": true
    },
    {
      "inputs": [
        {
          "internalType": "uint256",
          "name": "_storeNum",
          "type": "uint256"
        }
      ],
      "name": "getStoreFrontInfo",
      "outputs": [
        {
          "internalType": "string",
          "name": "",
          "type": "string"
        },
        {
          "internalType": "address",
          "name": "",
          "type": "address"
        },
        {
          "internalType": "address",
          "name": "",
          "type": "address"
        },
        {
          "internalType": "uint256",
          "name": "",
          "type": "uint256"
        },
        {
          "internalType": "uint256",
          "name": "",
          "type": "uint256"
        }
      ],
      "stateMutability": "view",
      "type": "function",
      "constant": true
    },
    {
      "inputs": [
        {
          "internalType": "uint256",
          "name": "_productNum",
          "type": "uint256"
        }
      ],
      "name": "getProductInfo",
      "outputs": [
        {
          "internalType": "string",
          "name": "",
          "type": "string"
        },
        {
          "internalType": "uint256",
          "name": "",
          "type": "uint256"
        },
        {
          "internalType": "uint256",
          "name": "",
          "type": "uint256"
        },
        {
          "internalType": "uint256",
          "name": "",
          "type": "uint256"
        },
        {
          "internalType": "uint256",
          "name": "",
          "type": "uint256"
        },
        {
          "internalType": "bool",
          "name": "",
          "type": "bool"
        }
      ],
      "stateMutability": "view",
      "type": "function",
      "constant": true
    },
    {
      "inputs": [
        {
          "internalType": "uint256",
          "name": "_storeNum",
          "type": "uint256"
        },
        {
          "internalType": "uint256",
          "name": "_productNum",
          "type": "uint256"
        }
      ],
      "name": "purchaseProduct",
      "outputs": [
        {
          "internalType": "bool",
          "name": "",
          "type": "bool"
        }
      ],
      "stateMutability": "payable",
      "type": "function",
      "payable": true
    }
  ],
  "bytecode": "0x608060405234801561001057600080fd5b50600061002161013c60201b60201c565b9050806000806101000a81548173ffffffffffffffffffffffffffffffffffffffff021916908373ffffffffffffffffffffffffffffffffffffffff1602179055508073ffffffffffffffffffffffffffffffffffffffff16600073ffffffffffffffffffffffffffffffffffffffff167f8be0079c531659141344cd1fd0a4f28419497f9722a3daafe3b4186f6b6457e060405160405180910390a3506001600560003373ffffffffffffffffffffffffffffffffffffffff1673ffffffffffffffffffffffffffffffffffffffff16815260200190815260200160002060006101000a81548160ff0219169083151502179055506000600181905550600160028190555060006003819055506000600481905550610144565b600033905090565b612e2380620001546000396000f3fe6080604052600436106101bb5760003560e01c8063715018a6116100ec578063a04404261161008a578063c27ed2a211610064578063c27ed2a214610c3b578063e0f6ef8714610d35578063f2fde38b14610d60578063f452df3814610db1576101c5565b8063a044042614610b95578063a1b141d414610be5578063b75fd88f14610c10576101c5565b8063881a930b116100c6578063881a930b146109ab5780638c70439a14610a125780638da5cb5b14610aed5780639adeb5f114610b44576101c5565b8063715018a61461079157806378acd5c8146107a857806379a85e6c146108d0576101c5565b80633191d40111610159578063506cd10711610133578063506cd107146106675780635287d535146106a05780635effd33c146106fd5780636f9fb98a14610766576101c5565b80633191d4011461046757806342907cef1461058f578063429b62e5146105fe576101c5565b806324d7806c1161019557806324d7806c146102c55780632b7832b31461032e5780632e1a7d4d146103595780632fc826bd14610387576101c5565b8063057cc2a1146101ca578063092a5cce1461023357806313db203e1461024a576101c5565b366101c557600080fd5b600080fd5b3480156101d657600080fd5b50610219600480360360208110156101ed57600080fd5b81019080803573ffffffffffffffffffffffffffffffffffffffff169060200190929190505050610e0a565b604051808215151515815260200191505060405180910390f35b34801561023f57600080fd5b50610248610e2a565b005b34801561025657600080fd5b506102836004803603602081101561026d57600080fd5b8101908080359060200190929190505050610f0c565b604051808273ffffffffffffffffffffffffffffffffffffffff1673ffffffffffffffffffffffffffffffffffffffff16815260200191505060405180910390f35b3480156102d157600080fd5b50610314600480360360208110156102e857600080fd5b81019080803573ffffffffffffffffffffffffffffffffffffffff169060200190929190505050610f3f565b604051808215151515815260200191505060405180910390f35b34801561033a57600080fd5b50610343610f95565b6040518082815260200191505060405180910390f35b6103856004803603602081101561036f57600080fd5b8101908080359060200190929190505050610f9b565b005b34801561039357600080fd5b5061044d600480360360208110156103aa57600080fd5b81019080803590602001906401000000008111156103c757600080fd5b8201836020820111156103d957600080fd5b803590602001918460018302840111640100000000831117156103fb57600080fd5b91908080601f016020809104026020016040519081016040528093929190818152602001838380828437600081840152601f19601f82011690508083019250505050505050919291929050505061111c565b604051808215151515815260200191505060405180910390f35b34801561047357600080fd5b506104a06004803603602081101561048a57600080fd5b810190808035906020019092919050505061149f565b60405180806020018673ffffffffffffffffffffffffffffffffffffffff1673ffffffffffffffffffffffffffffffffffffffff1681526020018573ffffffffffffffffffffffffffffffffffffffff1673ffffffffffffffffffffffffffffffffffffffff168152602001848152602001838152602001828103825287818151815260200191508051906020019080838360005b83811015610550578082015181840152602081019050610535565b50505050905090810190601f16801561057d5780820380516001836020036101000a031916815260200191505b50965050505050505060405180910390f35b34801561059b57600080fd5b506105e8600480360360408110156105b257600080fd5b81019080803573ffffffffffffffffffffffffffffffffffffffff169060200190929190803590602001909291905050506115ad565b6040518082815260200191505060405180910390f35b34801561060a57600080fd5b5061064d6004803603602081101561062157600080fd5b81019080803573ffffffffffffffffffffffffffffffffffffffff1690602001909291905050506115db565b604051808215151515815260200191505060405180910390f35b34801561067357600080fd5b5061067c6115fb565b6040518082600281111561068c57fe5b60ff16815260200191505060405180910390f35b3480156106ac57600080fd5b506106e3600480360360408110156106c357600080fd5b8101908080359060200190929190803590602001909291905050506116a4565b604051808215151515815260200191505060405180910390f35b34801561070957600080fd5b5061074c6004803603602081101561072057600080fd5b81019080803573ffffffffffffffffffffffffffffffffffffffff169060200190929190505050611739565b604051808215151515815260200191505060405180910390f35b34801561077257600080fd5b5061077b61178f565b6040518082815260200191505060405180910390f35b34801561079d57600080fd5b506107a6611860565b005b3480156107b457600080fd5b506107e1600480360360208110156107cb57600080fd5b81019080803590602001909291905050506119e8565b60405180806020018673ffffffffffffffffffffffffffffffffffffffff1673ffffffffffffffffffffffffffffffffffffffff1681526020018573ffffffffffffffffffffffffffffffffffffffff1673ffffffffffffffffffffffffffffffffffffffff168152602001848152602001838152602001828103825287818151815260200191508051906020019080838360005b83811015610891578082015181840152602081019050610876565b50505050905090810190601f1680156108be5780820380516001836020036101000a031916815260200191505b50965050505050505060405180910390f35b3480156108dc57600080fd5b50610909600480360360208110156108f357600080fd5b8101908080359060200190929190505050611b51565b604051808060200187815260200186815260200185815260200184815260200183151515158152602001828103825288818151815260200191508051906020019080838360005b8381101561096b578082015181840152602081019050610950565b50505050905090810190601f1680156109985780820380516001836020036101000a031916815260200191505b5097505050505050505060405180910390f35b3480156109b757600080fd5b506109f8600480360360608110156109ce57600080fd5b81019080803590602001909291908035906020019092919080359060200190929190505050611ca2565b604051808215151515815260200191505060405180910390f35b348015610a1e57600080fd5b50610a4b60048036036020811015610a3557600080fd5b8101908080359060200190929190505050611d7e565b604051808060200187815260200186815260200185815260200184815260200183151515158152602001828103825288818151815260200191508051906020019080838360005b83811015610aad578082015181840152602081019050610a92565b50505050905090810190601f168015610ada5780820380516001836020036101000a031916815260200191505b5097505050505050505060405180910390f35b348015610af957600080fd5b50610b02611e5f565b604051808273ffffffffffffffffffffffffffffffffffffffff1673ffffffffffffffffffffffffffffffffffffffff16815260200191505060405180910390f35b348015610b5057600080fd5b50610b9360048036036020811015610b6757600080fd5b81019080803573ffffffffffffffffffffffffffffffffffffffff169060200190929190505050611e88565b005b610bcb60048036036040811015610bab57600080fd5b8101908080359060200190929190803590602001909291905050506120c1565b604051808215151515815260200191505060405180910390f35b348015610bf157600080fd5b50610bfa612471565b6040518082815260200191505060405180910390f35b348015610c1c57600080fd5b50610c25612477565b6040518082815260200191505060405180910390f35b348015610c4757600080fd5b50610d1f60048036036080811015610c5e57600080fd5b810190808035906020019092919080359060200190640100000000811115610c8557600080fd5b820183602082011115610c9757600080fd5b80359060200191846001830284011164010000000083111715610cb957600080fd5b91908080601f016020809104026020016040519081016040528093929190818152602001838380828437600081840152601f19601f820116905080830192505050505050509192919290803590602001909291908035906020019092919050505061247d565b6040518082815260200191505060405180910390f35b348015610d4157600080fd5b50610d4a61275e565b6040518082815260200191505060405180910390f35b348015610d6c57600080fd5b50610daf60048036036020811015610d8357600080fd5b81019080803573ffffffffffffffffffffffffffffffffffffffff169060200190929190505050612764565b005b348015610dbd57600080fd5b50610df460048036036040811015610dd457600080fd5b810190808035906020019092919080359060200190929190505050612971565b6040518082815260200191505060405180910390f35b60066020528060005260406000206000915054906101000a900460ff1681565b610e3261299f565b73ffffffffffffffffffffffffffffffffffffffff166000809054906101000a900473ffffffffffffffffffffffffffffffffffffffff1673ffffffffffffffffffffffffffffffffffffffff1614610ef3576040517f08c379a00000000000000000000000000000000000000000000000000000000081526004018080602001828103825260208152602001807f4f776e61626c653a2063616c6c6572206973206e6f7420746865206f776e657281525060200191505060405180910390fd5b3073ffffffffffffffffffffffffffffffffffffffff16ff5b60096020528060005260406000206000915054906101000a900473ffffffffffffffffffffffffffffffffffffffff1681565b6000600560008373ffffffffffffffffffffffffffffffffffffffff1673ffffffffffffffffffffffffffffffffffffffff16815260200190815260200160002060009054906101000a900460ff169050919050565b60025481565b6000600760008381526020019081526020016000206004015411611027576040517f08c379a000000000000000000000000000000000000000000000000000000000815260040180806020018281038252601a8152602001807f536f7272792c206e6f2066756e647320617661696c61626c652100000000000081525060200191505060405180910390fd5b600060076000838152602001908152602001600020600401549050600060076000848152602001908152602001600020600401819055503373ffffffffffffffffffffffffffffffffffffffff166108fc829081150290604051600060405180830381858888f193505050501580156110a4573d6000803e3d6000fd5b507f101ec0c68f1fc97c09cf17d4a562d7d7d1c37f3b384207db8f5e14f221f356de818333604051808481526020018381526020018273ffffffffffffffffffffffffffffffffffffffff1673ffffffffffffffffffffffffffffffffffffffff168152602001935050505060405180910390a15050565b6000600660003373ffffffffffffffffffffffffffffffffffffffff1673ffffffffffffffffffffffffffffffffffffffff16815260200190815260200160002060009054906101000a900460ff166111c0576040517f08c379a0000000000000000000000000000000000000000000000000000000008152600401808060200182810382526021815260200180612dab6021913960400191505060405180910390fd5b6111cd60035460016129a7565b6003819055506040518060a001604052808381526020013373ffffffffffffffffffffffffffffffffffffffff168152602001600073ffffffffffffffffffffffffffffffffffffffff168152602001600081526020016000815250600760006003548152602001908152602001600020600082015181600001908051906020019061125a929190612c49565b5060208201518160010160006101000a81548173ffffffffffffffffffffffffffffffffffffffff021916908373ffffffffffffffffffffffffffffffffffffffff16021790555060408201518160020160006101000a81548173ffffffffffffffffffffffffffffffffffffffff021916908373ffffffffffffffffffffffffffffffffffffffff1602179055506060820151816003015560808201518160040155905050600860003373ffffffffffffffffffffffffffffffffffffffff1673ffffffffffffffffffffffffffffffffffffffff16815260200190815260200160002060035490806001815401808255809150506001900390600052602060002001600090919091909150553360096000600354815260200190815260200160002060006101000a81548173ffffffffffffffffffffffffffffffffffffffff021916908373ffffffffffffffffffffffffffffffffffffffff1602179055507f981bdf87b6a5937751ec714254f33c9280af322ed4c6744b1ba943aae982b606600354833360405180848152602001806020018373ffffffffffffffffffffffffffffffffffffffff1673ffffffffffffffffffffffffffffffffffffffff168152602001828103825284818151815260200191508051906020019080838360005b8381101561145a57808201518184015260208101905061143f565b50505050905090810190601f1680156114875780820380516001836020036101000a031916815260200191505b5094505050505060405180910390a160019050919050565b6007602052806000526040600020600091509050806000018054600181600116156101000203166002900480601f01602080910402602001604051908101604052809291908181526020018280546001816001161561010002031660029004801561154b5780601f106115205761010080835404028352916020019161154b565b820191906000526020600020905b81548152906001019060200180831161152e57829003601f168201915b5050505050908060010160009054906101000a900473ffffffffffffffffffffffffffffffffffffffff16908060020160009054906101000a900473ffffffffffffffffffffffffffffffffffffffff16908060030154908060040154905085565b600860205281600052604060002081815481106115c657fe5b90600052602060002001600091509150505481565b60056020528060005260406000206000915054906101000a900460ff1681565b6000611605611e5f565b73ffffffffffffffffffffffffffffffffffffffff163373ffffffffffffffffffffffffffffffffffffffff16141561164157600090506116a1565b600660003373ffffffffffffffffffffffffffffffffffffffff1673ffffffffffffffffffffffffffffffffffffffff16815260200190815260200160002060009054906101000a900460ff161561169c57600190506116a1565b600290505b90565b600080600a600084815260200190815260200160002060050160006101000a81548160ff0219169083151502179055506000600a6000848152602001908152602001600020600401819055507fee5c25bc05965731664c56badbcca59a6253500c527c65804cd0767ae581b92b8383604051808381526020018281526020019250505060405180910390a16001905092915050565b6000600660008373ffffffffffffffffffffffffffffffffffffffff1673ffffffffffffffffffffffffffffffffffffffff16815260200190815260200160002060009054906101000a900460ff169050919050565b600061179961299f565b73ffffffffffffffffffffffffffffffffffffffff166000809054906101000a900473ffffffffffffffffffffffffffffffffffffffff1673ffffffffffffffffffffffffffffffffffffffff161461185a576040517f08c379a00000000000000000000000000000000000000000000000000000000081526004018080602001828103825260208152602001807f4f776e61626c653a2063616c6c6572206973206e6f7420746865206f776e657281525060200191505060405180910390fd5b47905090565b61186861299f565b73ffffffffffffffffffffffffffffffffffffffff166000809054906101000a900473ffffffffffffffffffffffffffffffffffffffff1673ffffffffffffffffffffffffffffffffffffffff1614611929576040517f08c379a00000000000000000000000000000000000000000000000000000000081526004018080602001828103825260208152602001807f4f776e61626c653a2063616c6c6572206973206e6f7420746865206f776e657281525060200191505060405180910390fd5b600073ffffffffffffffffffffffffffffffffffffffff166000809054906101000a900473ffffffffffffffffffffffffffffffffffffffff1673ffffffffffffffffffffffffffffffffffffffff167f8be0079c531659141344cd1fd0a4f28419497f9722a3daafe3b4186f6b6457e060405160405180910390a360008060006101000a81548173ffffffffffffffffffffffffffffffffffffffff021916908373ffffffffffffffffffffffffffffffffffffffff160217905550565b6060600080600080600760008781526020019081526020016000206000016007600088815260200190815260200160002060010160009054906101000a900473ffffffffffffffffffffffffffffffffffffffff166007600089815260200190815260200160002060020160009054906101000a900473ffffffffffffffffffffffffffffffffffffffff16600760008a815260200190815260200160002060030154600760008b815260200190815260200160002060040154848054600181600116156101000203166002900480601f016020809104026020016040519081016040528092919081815260200182805460018160011615610100020316600290048015611b375780601f10611b0c57610100808354040283529160200191611b37565b820191906000526020600020905b815481529060010190602001808311611b1a57829003601f168201915b505050505094509450945094509450945091939590929450565b60606000806000806000600a6000888152602001908152602001600020600001600a600089815260200190815260200160002060010154600a60008a815260200190815260200160002060020154600a60008b815260200190815260200160002060030154600a60008c815260200190815260200160002060040154600a60008d815260200190815260200160002060050160009054906101000a900460ff16858054600181600116156101000203166002900480601f016020809104026020016040519081016040528092919081815260200182805460018160011615610100020316600290048015611c865780601f10611c5b57610100808354040283529160200191611c86565b820191906000526020600020905b815481529060010190602001808311611c6957829003601f168201915b5050505050955095509550955095509550955091939550919395565b6000808211611d19576040517f08c379a000000000000000000000000000000000000000000000000000000000815260040180806020018281038252601d8152602001807f536f7272792c20696e76616c69642070726f647563742070726963652100000081525060200191505060405180910390fd5b81600a6000858152602001908152602001600020600301819055507f9987862e9f463e3075602b8f1247bada327ce78280095dd85620ae7e879a8b6e8484604051808381526020018281526020019250505060405180910390a1600190509392505050565b600a602052806000526040600020600091509050806000018054600181600116156101000203166002900480601f016020809104026020016040519081016040528092919081815260200182805460018160011615610100020316600290048015611e2a5780601f10611dff57610100808354040283529160200191611e2a565b820191906000526020600020905b815481529060010190602001808311611e0d57829003601f168201915b5050505050908060010154908060020154908060030154908060040154908060050160009054906101000a900460ff16905086565b60008060009054906101000a900473ffffffffffffffffffffffffffffffffffffffff16905090565b600560003373ffffffffffffffffffffffffffffffffffffffff1673ffffffffffffffffffffffffffffffffffffffff16815260200190815260200160002060009054906101000a900460ff16611f47576040517f08c379a00000000000000000000000000000000000000000000000000000000081526004018080602001828103825260198152602001807f536f7272792c20796f7520617265206e6f742061646d696e210000000000000081525060200191505060405180910390fd5b60001515600660008373ffffffffffffffffffffffffffffffffffffffff1673ffffffffffffffffffffffffffffffffffffffff16815260200190815260200160002060009054906101000a900460ff16151514611ff0576040517f08c379a0000000000000000000000000000000000000000000000000000000008152600401808060200182810382526022815260200180612dcc6022913960400191505060405180910390fd5b6001600660008373ffffffffffffffffffffffffffffffffffffffff1673ffffffffffffffffffffffffffffffffffffffff16815260200190815260200160002060006101000a81548160ff02191690831515021790555061205560015460016129a7565b6001819055507fc48be1259827f286158037425eac2071e5a2ce505bf01d53384e77fa0ef60da281604051808273ffffffffffffffffffffffffffffffffffffffff1673ffffffffffffffffffffffffffffffffffffffff16815260200191505060405180910390a150565b6000600660003373ffffffffffffffffffffffffffffffffffffffff1673ffffffffffffffffffffffffffffffffffffffff16815260200190815260200160002060009054906101000a900460ff1615612166576040517f08c379a0000000000000000000000000000000000000000000000000000000008152600401808060200182810382526032815260200180612cef6032913960400191505060405180910390fd5b600560003373ffffffffffffffffffffffffffffffffffffffff1673ffffffffffffffffffffffffffffffffffffffff16815260200190815260200160002060009054906101000a900460ff1615612209576040517f08c379a000000000000000000000000000000000000000000000000000000000815260040180806020018281038252602c815260200180612d47602c913960400191505060405180910390fd5b34600a6000848152602001908152602001600020600301541115612278576040517f08c379a0000000000000000000000000000000000000000000000000000000008152600401808060200182810382526038815260200180612d736038913960400191505060405180910390fd5b6000600a60008481526020019081526020016000206004015411612304576040517f08c379a00000000000000000000000000000000000000000000000000000000081526004018080602001828103825260208152602001807f536f7272792c2070726f64756374206973206e6f7420617661696c61626c652181525060200191505060405180910390fd5b600061232634600a600086815260200190815260200160002060030154612a2f565b9050612348600a60008581526020019081526020016000206004015482612a79565b600a6000858152602001908152602001600020600401819055506000600a60008581526020019081526020016000206004015414156123b1576000600a600085815260200190815260200160002060050160006101000a81548160ff0219169083151502179055505b6123d16007600086815260200190815260200160002060040154346129a7565b60076000868152602001908152602001600020600401819055507f324053f20c3456e1c74e05e0171fc80eff371fe7eb33719a81ecded399e31e3484848333604051808581526020018481526020018381526020018273ffffffffffffffffffffffffffffffffffffffff1673ffffffffffffffffffffffffffffffffffffffff16815260200194505050505060405180910390a1600191505092915050565b60035481565b60015481565b60008083116124f4576040517f08c379a000000000000000000000000000000000000000000000000000000000815260040180806020018281038252601d8152602001807f536f7272792c20696e76616c69642070726f647563742070726963652100000081525060200191505060405180910390fd5b6000821161256a576040517f08c379a00000000000000000000000000000000000000000000000000000000081526004018080602001828103825260208152602001807f536f7272792c20696e76616c69642070726f64756374207175616e746974792181525060200191505060405180910390fd5b61258b600760008781526020019081526020016000206003015460016129a7565b60076000878152602001908152602001600020600301819055506125b260045460016129a7565b6004819055506040518060c00160405280858152602001868152602001600454815260200184815260200183815260200160011515815250600a60006004548152602001908152602001600020600082015181600001908051906020019061261b929190612c49565b506020820151816001015560408201518160020155606082015181600301556080820151816004015560a08201518160050160006101000a81548160ff021916908315150217905550905050600b600086815260200190815260200160002060045490806001815401808255809150506001900390600052602060002001600090919091909150557fffc61c86dc65391f52b36f4b6e6bbdf5a9352c0bdfa13d44bbcf775695cf844a85856004546040518084815260200180602001838152602001828103825284818151815260200191508051906020019080838360005b838110156127155780820151818401526020810190506126fa565b50505050905090810190601f1680156127425780820380516001836020036101000a031916815260200191505b5094505050505060405180910390a16004549050949350505050565b60045481565b61276c61299f565b73ffffffffffffffffffffffffffffffffffffffff166000809054906101000a900473ffffffffffffffffffffffffffffffffffffffff1673ffffffffffffffffffffffffffffffffffffffff161461282d576040517f08c379a00000000000000000000000000000000000000000000000000000000081526004018080602001828103825260208152602001807f4f776e61626c653a2063616c6c6572206973206e6f7420746865206f776e657281525060200191505060405180910390fd5b600073ffffffffffffffffffffffffffffffffffffffff168173ffffffffffffffffffffffffffffffffffffffff1614156128b3576040517f08c379a0000000000000000000000000000000000000000000000000000000008152600401808060200182810382526026815260200180612d216026913960400191505060405180910390fd5b8073ffffffffffffffffffffffffffffffffffffffff166000809054906101000a900473ffffffffffffffffffffffffffffffffffffffff1673ffffffffffffffffffffffffffffffffffffffff167f8be0079c531659141344cd1fd0a4f28419497f9722a3daafe3b4186f6b6457e060405160405180910390a3806000806101000a81548173ffffffffffffffffffffffffffffffffffffffff021916908373ffffffffffffffffffffffffffffffffffffffff16021790555050565b600b602052816000526040600020818154811061298a57fe5b90600052602060002001600091509150505481565b600033905090565b600080828401905083811015612a25576040517f08c379a000000000000000000000000000000000000000000000000000000000815260040180806020018281038252601b8152602001807f536166654d6174683a206164646974696f6e206f766572666c6f77000000000081525060200191505060405180910390fd5b8091505092915050565b6000612a7183836040518060400160405280601a81526020017f536166654d6174683a206469766973696f6e206279207a65726f000000000000815250612ac3565b905092915050565b6000612abb83836040518060400160405280601e81526020017f536166654d6174683a207375627472616374696f6e206f766572666c6f770000815250612b89565b905092915050565b60008083118290612b6f576040517f08c379a00000000000000000000000000000000000000000000000000000000081526004018080602001828103825283818151815260200191508051906020019080838360005b83811015612b34578082015181840152602081019050612b19565b50505050905090810190601f168015612b615780820380516001836020036101000a031916815260200191505b509250505060405180910390fd5b506000838581612b7b57fe5b049050809150509392505050565b6000838311158290612c36576040517f08c379a00000000000000000000000000000000000000000000000000000000081526004018080602001828103825283818151815260200191508051906020019080838360005b83811015612bfb578082015181840152602081019050612be0565b50505050905090810190601f168015612c285780820380516001836020036101000a031916815260200191505b509250505060405180910390fd5b5060008385039050809150509392505050565b828054600181600116156101000203166002900490600052602060002090601f016020900481019282601f10612c8a57805160ff1916838001178555612cb8565b82800160010185558215612cb8579182015b82811115612cb7578251825591602001919060010190612c9c565b5b509050612cc59190612cc9565b5090565b612ceb91905b80821115612ce7576000816000905550600101612ccf565b5090565b9056fe536f7272792c2073746f7265206f776e6572206973206e6f7420616c6c6f77656420746f206275792070726f6475637473214f776e61626c653a206e6577206f776e657220697320746865207a65726f2061646472657373536f7272792c2061646d696e206973206e6f7420616c6c6f77656420746f206275792070726f647563747321536f7272792c207472616e736665727265642076616c7565206973206c657373207468616e207468652070726f6475637420707269636521536f7272792c20796f7520617265206e6f7420612073746f7265206f776e657221536f7272792c2073746f7265206f776e657220616c72656164792065786973747321a2646970667358221220594ef7b320d27b6c05894fe1a623e77040882992b15b896f1df2f4c70026e2c364736f6c63430006020033",
  "source": "//SPDX-License-Identifier: MIT\n\npragma solidity >=0.5.16<0.8.0;\n\nimport \"@openzeppelin/contracts/access/Ownable.sol\";\nimport \"@openzeppelin/contracts/math/SafeMath.sol\";\n\n///@title MarketPlace DApp\n///@author Zeinab-Salimi\n///@notice Simple Market Place for Consensys 2020 Bootcamp Final Project\n\n\ncontract MarketPlace is Ownable {\n    \n    //Uses SafeMath library to avoid integer overflow/underflow attacks\n    using SafeMath for uint; \n\n    uint public storeOwnersCount;\n    uint public adminCount;\n    uint public storeCount;\n    uint public productCount;\n    mapping (address => bool) public admins;\n    mapping (address => bool) public storeOwners;\n    mapping(uint => StoreFront) public storeFronts;\n    mapping(address => uint[]) public storeOwnertoStoreFront;\n    mapping(uint => address) public storeFronttoStoreOwner;\n    mapping(uint => Product) public StoreProducts;\n    mapping(uint => uint[]) public stotrFronttoProducts;\n\n\n    struct StoreFront {\n        string storeName;\n        address storeOwner;\n        address approverAdmin;\n        uint skuCount;\n        uint balance;\n    }\n    \n    struct Product {\n        string name;\n        uint storeNum;\n        uint productNum;\n        uint price;\n        uint quantity;\n        bool isAvailable;\n    } \n\n\n    enum addressTypes {admin, storeOwner, shopper}\n\n    event adminAdded(address newAdmin);\n    event adminRemoved(address admin);\n    event storeOwnerAdded(address newStoreOwner);\n    event storeOwnerRemoved(address storeOwner);\n    event storeFrontCreated(uint storeNum, string storeName, address storeOwner);\n    event storeFrontApproved(uint storeNum, address admin);\n    event productAdded(uint storeNum, string productName, uint productNum);\n    event productPriceUpdated(uint storeNum, uint productNum);\n    event productRemoved(uint storeNum, uint productNum);\n    event storeWithdrawn(uint amount, uint storeNum, address storeOwner);\n    event productPurchased(uint storeNum, uint productNum, uint quantity, address shopper);\n\n\n    /** @dev verifies the msg.sender is an admin */\n    modifier onlyAdmin() {require(admins[msg.sender], \"Sorry, you are not admin!\"); _;}\n\n    /** @dev verifies the msg.sender is the store owner */\n    modifier onlyStoreOwner() {require(storeOwners[msg.sender], \"Sorry, you are not a store owner!\"); _;}\n\n    /** @dev verifies the msg.sender is not a store owner or admin */\n    modifier onlyShopper(){require(!storeOwners[msg.sender], \"Sorry, store owner is not allowed to buy products!\"); \n    require(!admins[msg.sender], \"Sorry, admin is not allowed to buy products!\"); _;}\n\n\n\n    /** @dev constracter initalises state variables */\n    constructor() public {\n        admins[msg.sender] = true;\n        storeOwnersCount = 0;\n        adminCount = 1;\n        storeCount = 0;\n        productCount = 0;\n    }\n\n    \n    /** @dev admin allowed to add a new store owner \n      * @param _newStoreOwner new store owner addrress \n    */\n    function addStoreOwner(address _newStoreOwner) public onlyAdmin() {\n        require(storeOwners[_newStoreOwner] == false, \"Sorry, store owner already exists!\");\n        storeOwners[_newStoreOwner] = true;\n        storeOwnersCount = SafeMath.add(storeOwnersCount, 1);\n        emit storeOwnerAdded(_newStoreOwner);\n    }\n\n\n    /** @dev returns (true) if the address is an admin, otherwise returns (false) */\n    function isAdmin(address _address) public view returns(bool) {\n        return admins[_address];\n    }\n\n    /** @dev returns (true) if the address is store owner, otherwise returns (false) */\n    function isStoreOwner(address _address) public view returns(bool) {\n        return storeOwners[_address];\n    }\n\n    /** @dev returns the type of address (market owner, admin, store owner, or shopper) */\n    function addressType() public view returns(addressTypes) {\n\n        if(msg.sender == super.owner())\n            return addressTypes.admin;\n        if(storeOwners[msg.sender])\n            return addressTypes.storeOwner;\n        else\n            return addressTypes.shopper;\n    }\n\n    /** @dev View contract balance\n      * @return balance of all store fronts\n    */ \n    function getContractBalance() public view onlyOwner() returns(uint){\n        return address(this).balance;\n    }\n\n    /** @dev selfdestruct the contract to destroy the contract in case of bugs */\n    function destroyContract() public onlyOwner() {\n        selfdestruct(address(this));\n    }\n\n    /**-----------------------------------------------------------------------\n        ------------------------ Store Owner Functions ----------------------\n       -----------------------------------------------------------------------*/\n  \n\n    /** @dev store owner is allowed to add a new store front \n      * @param _storeName new market state\n      * @return the store number\n    */\n    function createStoreFront(string memory _storeName) public  onlyStoreOwner() returns(bool){   \n        storeCount = SafeMath.add(storeCount, 1);\n        storeFronts[storeCount] = StoreFront({storeName: _storeName, storeOwner: msg.sender, approverAdmin: address(0), skuCount: 0, balance: 0});\n        storeOwnertoStoreFront[msg.sender].push(storeCount);\n        storeFronttoStoreOwner[storeCount] = msg.sender;\n        emit storeFrontCreated(storeCount, _storeName, msg.sender);\n        return true;\n    }\n\n\n    /** @dev Store owner allowed to add a new product to their store front\n      * @param _storeNum storefront number\n      * @param _productName product name\n      * @param _productPrice product price\n      * @param _productQuantity available quantity of the product\n    */   \n    function addProduct(uint _storeNum, string memory _productName, uint _productPrice, uint _productQuantity) \n    public returns(uint){\n        // require(storeFronts[_storeNum].state == true,  \"Sorry, store front is not approved yet!\");\n        require(_productPrice > 0, \"Sorry, invalid product price!\");\n        require(_productQuantity > 0, \"Sorry, invalid product quantity!\");\n        storeFronts[_storeNum].skuCount = SafeMath.add(storeFronts[_storeNum].skuCount, 1);\n        productCount = SafeMath.add(productCount,1);\n        StoreProducts[productCount]= Product({name: _productName,  storeNum: _storeNum, productNum: productCount, price: _productPrice, quantity: _productQuantity, isAvailable: true});\n        stotrFronttoProducts[_storeNum].push(productCount);\n        emit productAdded(_storeNum, _productName, productCount);\n        return productCount;\n    }\n\n    /** @dev Store owner allowed to update product price\n      * @param _storeNum store front number\n      * @param _productNum product nunmber\n      * @param _newProductPrice product price\n    */   \n    function updateProductPrice(uint _storeNum, uint _productNum, uint _newProductPrice) \n    public returns(bool){\n        // require(storeFronts[_storeNum].state == true,  \"Sorry, store front is not approved yet!\");\n        require(_newProductPrice > 0, \"Sorry, invalid product price!\");\n        StoreProducts[_productNum].price = _newProductPrice;\n        emit productPriceUpdated(_storeNum, _productNum);\n        return true;\n    }\n\n    /** @dev Store owner allowed to remove product\n      * @param _storeNum store front number\n      * @param _productNum product nunmber\n    */   \n    function removeProduct(uint _storeNum, uint _productNum) \n    public returns(bool){\n        // require(storeFronts[_storeNum].state == true,  \"Sorry, store front is not approved yet!\");\n        StoreProducts[_productNum].isAvailable = false;\n        StoreProducts[_productNum].quantity = 0;\n        emit productRemoved(_storeNum, _productNum);\n        return true;\n    }\n\n    /** @dev Store owner can withdraw balance from their store fronts \n      * @param _storeNum store front number\n    */ \n    function withdraw(uint _storeNum) \n    public payable {\n        require(storeFronts[_storeNum].balance > 0, \"Sorry, no funds available!\");\n        uint amount = storeFronts[_storeNum].balance;\n        storeFronts[_storeNum].balance = 0;\n        msg.sender.transfer(amount);\n        emit storeWithdrawn(amount, _storeNum, msg.sender);\n    }\n\n    /** @dev return store front info\n      * @param _storeNum store front number\n    */ \n    function getStoreFrontInfo(uint _storeNum) \n    public view returns(string memory, address, address, uint, uint){\n        return (\n        storeFronts[_storeNum].storeName,\n        storeFronts[_storeNum].storeOwner,\n        storeFronts[_storeNum].approverAdmin,\n        storeFronts[_storeNum].skuCount,\n        storeFronts[_storeNum].balance\n        );\n    }\n\n    /** @dev return products info\n      * @param _productNum product number\n    */ \n    function getProductInfo(uint _productNum) \n    public view returns(string memory, uint, uint, uint, uint, bool){\n        return (\n        StoreProducts[_productNum].name,\n        StoreProducts[_productNum].storeNum,\n        StoreProducts[_productNum].productNum,\n        StoreProducts[_productNum].price,\n        StoreProducts[_productNum].quantity,\n        StoreProducts[_productNum].isAvailable\n        );\n    }\n\n    /**-----------------------------------------------------------------------\n        -------------------------- Shopper Functions ------------------------\n       -----------------------------------------------------------------------*/\n  \n  \n\n    /** @dev Shopper allowed to purchase a product \n      * @param _storeNum store front number\n      * @param _productNum product number\n    */   \n    function purchaseProduct( uint _storeNum, uint _productNum) \n    public payable onlyShopper() returns(bool){\n        require(StoreProducts[_productNum].price <= msg.value, \"Sorry, transferred value is less than the product price!\");\n        require(StoreProducts[_productNum].quantity > 0, \"Sorry, product is not available!\");\n        \n        uint quantity = SafeMath.div(msg.value, StoreProducts[_productNum].price);\n        StoreProducts[_productNum].quantity = SafeMath.sub(StoreProducts[_productNum].quantity, quantity);\n        \n        if (StoreProducts[_productNum].quantity == 0){\n            StoreProducts[_productNum].isAvailable = false;}\n        \n        storeFronts[_storeNum].balance = SafeMath.add(storeFronts[_storeNum].balance,msg.value);\n        \n        emit productPurchased(_storeNum, _productNum, quantity, msg.sender);\n        return true;\n    }\n\n    /** @dev fallback function */\n    receive() external payable {\n        revert();\n    }\n\n\n}\n",
  "sourcePath": "/home/dunno/Desktop/LAST/fp/contracts/MarketPlace.sol",
  "compiler": {
    "name": "solc",
    "version": "0.6.2+commit.bacdbe57.Emscripten.clang"
  },
  "schemaVersion": "3.2.5",
  "updatedAt": "2020-12-10T20:50:22.595Z",
  "networkType": "ethereum",
  "devdoc": {
    "author": "Zeinab-Salimi",
    "methods": {
      "addProduct(uint256,string,uint256,uint256)": {
        "details": "Store owner allowed to add a new product to their store front",
        "params": {
          "_productName": "product name",
          "_productPrice": "product price",
          "_productQuantity": "available quantity of the product",
          "_storeNum": "storefront number"
        }
      },
      "addStoreOwner(address)": {
        "details": "admin allowed to add a new store owner ",
        "params": {
          "_newStoreOwner": "new store owner addrress "
        }
      },
      "addressType()": {
        "details": "returns the type of address (market owner, admin, store owner, or shopper) "
      },
      "constructor": {
        "details": "constracter initalises state variables "
      },
      "createStoreFront(string)": {
        "details": "store owner is allowed to add a new store front ",
        "params": {
          "_storeName": "new market state"
        },
        "returns": {
          "_0": "the store number"
        }
      },
      "destroyContract()": {
        "details": "selfdestruct the contract to destroy the contract in case of bugs "
      },
      "getContractBalance()": {
        "details": "View contract balance",
        "returns": {
          "_0": "balance of all store fronts"
        }
      },
      "getProductInfo(uint256)": {
        "details": "return products info",
        "params": {
          "_productNum": "product number"
        }
      },
      "getStoreFrontInfo(uint256)": {
        "details": "return store front info",
        "params": {
          "_storeNum": "store front number"
        }
      },
      "isAdmin(address)": {
        "details": "returns (true) if the address is an admin, otherwise returns (false) "
      },
      "isStoreOwner(address)": {
        "details": "returns (true) if the address is store owner, otherwise returns (false) "
      },
      "owner()": {
        "details": "Returns the address of the current owner."
      },
      "purchaseProduct(uint256,uint256)": {
        "details": "Shopper allowed to purchase a product ",
        "params": {
          "_productNum": "product number",
          "_storeNum": "store front number"
        }
      },
      "removeProduct(uint256,uint256)": {
        "details": "Store owner allowed to remove product",
        "params": {
          "_productNum": "product nunmber",
          "_storeNum": "store front number"
        }
      },
      "renounceOwnership()": {
        "details": "Leaves the contract without owner. It will not be possible to call `onlyOwner` functions anymore. Can only be called by the current owner.     * NOTE: Renouncing ownership will leave the contract without an owner, thereby removing any functionality that is only available to the owner."
      },
      "transferOwnership(address)": {
        "details": "Transfers ownership of the contract to a new account (`newOwner`). Can only be called by the current owner."
      },
      "updateProductPrice(uint256,uint256,uint256)": {
        "details": "Store owner allowed to update product price",
        "params": {
          "_newProductPrice": "product price",
          "_productNum": "product nunmber",
          "_storeNum": "store front number"
        }
      },
      "withdraw(uint256)": {
        "details": "Store owner can withdraw balance from their store fronts ",
        "params": {
          "_storeNum": "store front number"
        }
      }
    },
    "title": "MarketPlace DApp"
  },
  "userdoc": {
    "methods": {},
    "notice": "Simple Market Place for Consensys 2020 Bootcamp Final Project"
  }
}